{
	"data": {
		"bytecode": {
			"linkReferences": {},
			"object": "608060405234801561001057600080fd5b50604051613dc9380380613dc98339818101604052606081101561003357600080fd5b5080516020820151604090920151600080546001600160a01b03199081163317909155600180546001600160a01b03958616908316179055600580549285169282169290921790915560028054939092169216919091179055613d2e8061009b6000396000f3fe608060405234801561001057600080fd5b50600436106100a95760003560e01c8063a509f4d111610071578063a509f4d11461011b578063af88e1f414610167578063b6c24e1f14610269578063c9ff624714610271578063cd63d7a114610279578063f2fde38b14610342576100a9565b806306661abd146100ae57806345598b4a146100c85780634e7ceacb146100e7578063715018a61461010b5780638da5cb5b14610113575b600080fd5b6100b6610368565b60408051918252519081900360200190f35b6100e5600480360360208110156100de57600080fd5b503561036e565b005b6100ef6104b7565b604080516001600160a01b039092168252519081900360200190f35b6100e56104c6565b6100ef610525565b6101386004803603602081101561013157600080fd5b5035610534565b60405180836001600160a01b03168152602001826001600160a01b031681526020019250505060405180910390f35b6100ef600480360361032081101561017e57600080fd5b60408051608081810183526001600160a01b0385358116956020810135959481013590911693810192909160e083019190606084019060049083908390808284376000920191909152505060408051608081810190925292959493818101939250906004908390839080828437600092019190915250506040805160c08181018352939685351515966020870135969195909450610100820193909101906006908390839080828437600092019190915250506040805160c08181019092529295949381810193925090600690839083908082843760009201919091525091945061055a9350505050565b6100ef610a23565b6100ef610a32565b6100e56004803603608081101561028f57600080fd5b813591908101906040810160208201356401000000008111156102b157600080fd5b8201836020820111156102c357600080fd5b803590602001918460208302840111640100000000831117156102e557600080fd5b91939092909160208101903564010000000081111561030357600080fd5b82018360208201111561031557600080fd5b8035906020019184602083028401116401000000008311171561033757600080fd5b919350915035610a41565b6100e56004803603602081101561035857600080fd5b50356001600160a01b0316610c00565b60045481565b6000546001600160a01b0316331461038557600080fd5b60045481106103c8576040805162461bcd60e51b815260206004820152600a602482015269125b9d985b1a5908125160b21b604482015290519081900360640190fd5b6103d0610c98565b50600081815260036020908152604091829020825180840190935280546001600160a01b039081168085526001909201541691830191909152610456576040805162461bcd60e51b8152602060048201526019602482015278125b9d985b1a590810d85b5c185a59db8818dbdb9d1c9858dd603a1b604482015290519081900360640190fd5b600081600001519050806001600160a01b0316633055d7906040518163ffffffff1660e01b8152600401600060405180830381600087803b15801561049a57600080fd5b505af11580156104ae573d6000803e3d6000fd5b50505050505050565b6005546001600160a01b031690565b6000546001600160a01b031633146104dd57600080fd5b600080546040516001600160a01b03909116917ff8df31144d9c2f0f6b59d69b8b98abd5459d07f2742c4df920b25aae33c6482091a2600080546001600160a01b0319169055565b6000546001600160a01b031681565b600360205260009081526040902080546001909101546001600160a01b03918216911682565b600080546001600160a01b0316331461057257600080fd5b60208701518751106105b55760405162461bcd60e51b8152600401808060200182810382526026815260200180613cd36026913960400191505060405180910390fd5b604087015161060b576040805162461bcd60e51b815260206004820152601a60248201527f546f6b656e20666f722073616c65732063616e27742062652030000000000000604482015290519081900360640190fd5b6060870151620f4240101561065c576040805162461bcd60e51b8152602060048201526012602482015271496e76616c696420666565732076616c756560701b604482015290519081900360640190fd5b602086015186511061069f5760405162461bcd60e51b8152600401808060200182810382526028815260200180613c7f6028913960400191505060405180910390fd5b604086015186511080156106b7575060608601518651105b6106f25760405162461bcd60e51b815260040180806020018281038252602c815260200180613c2a602c913960400191505060405180910390fd5b60408601516020870151118015610710575060608601516020870151115b61074b5760405162461bcd60e51b8152600401808060200182810382526029815260200180613c566029913960400191505060405180910390fd5b60608601516040870151106107a7576040805162461bcd60e51b815260206004820152601e60248201527f5265672043616e277420456e64206265666f726520746965722073616c650000604482015290519081900360640190fd5b855142106107e65760405162461bcd60e51b815260040180806020018281038252602c815260200180613ca7602c913960400191505060405180910390fd5b6060604051806020016107f890610caf565b6020820181038252601f19601f82011660405250905060008b8b3360405160200180846001600160a01b031660601b8152601401838152602001826001600160a01b031660601b81526014019350505050604051602081830303815290604052805190602001209050808251602084016000f59250826001600160a01b03166359d3c7e28d8c8c8c8c8c8c8c6040518963ffffffff1660e01b815260040180896001600160a01b03168152602001886001600160a01b0316815260200187600460200280838360005b838110156108d95781810151838201526020016108c1565b5050505090500186600460200280838360005b838110156109045781810151838201526020016108ec565b50505050905001851515815260200184815260200183600660200280838360005b8381101561093d578181015183820152602001610925565b5050505090500182600660200280838360005b83811015610968578181015183820152602001610950565b5050505090500198505050505050505050600060405180830381600087803b15801561099357600080fd5b505af11580156109a7573d6000803e3d6000fd5b50506040805180820182526001600160a01b0380881682528e811660208084019182526004805460009081526003909252949020925183549083166001600160a01b03199182161784559051600193840180549190931691161790559054610a1193509150610c85565b60045550509998505050505050505050565b6002546001600160a01b031690565b6001546001600160a01b031690565b6000546001600160a01b03163314610a5857600080fd5b6004548610610a9b576040805162461bcd60e51b815260206004820152600a602482015269125b9d985b1a5908125160b21b604482015290519081900360640190fd5b610aa3610c98565b50600086815260036020908152604091829020825180840190935280546001600160a01b039081168085526001909201541691830191909152610b29576040805162461bcd60e51b8152602060048201526019602482015278125b9d985b1a590810d85b5c185a59db8818dbdb9d1c9858dd603a1b604482015290519081900360640190fd5b80516040516302014fa960e11b815260448101849052606060048201908152606482018890526001600160a01b038316916304029f52918a918a918a918a918a9181906024810190608401886020890280828437600083820152601f01601f19169091018481038352868152602090810191508790870280828437600081840152601f19601f820116905080830192505050975050505050505050600060405180830381600087803b158015610bde57600080fd5b505af1158015610bf2573d6000803e3d6000fd5b505050505050505050505050565b6000546001600160a01b03163314610c1757600080fd5b6001600160a01b038116610c2a57600080fd5b600080546040516001600160a01b03808516939216917f8be0079c531659141344cd1fd0a4f28419497f9722a3daafe3b4186f6b6457e091a3600080546001600160a01b0319166001600160a01b0392909216919091179055565b81810182811015610c9257fe5b92915050565b604080518082019091526000808252602082015290565b612f6d80610cbd8339019056fe608060405234801561001057600080fd5b50600080546101003302610100600160a81b0319909116179055612f34806100396000396000f3fe6080604052600436106103355760003560e01c80638762d508116101ab578063b17fac22116100f7578063c45a015511610095578063ebe749d31161006f578063ebe749d314610a26578063fb86a40414610a3b578063fc0c546a14610a50578063fccc281314610a6557610335565b8063c45a0155146109e7578063d6a022b8146109fc578063e49bcd0114610a1157610335565b8063b9b237c2116100d1578063b9b237c214610975578063bccbc36c1461098a578063c039dec3146109bd578063c24a0f8b146109d257610335565b8063b17fac221461091a578063b73e08f31461094b578063b8f7a6651461096057610335565b80639724cb6e11610164578063a24bcf461161013e578063a24bcf461461086d578063a3070a3a14610897578063a5022737146108ca578063ace97e261461091257610335565b80639724cb6e1461082e5780639a82a09a146108435780639d90bf421461085857610335565b80638762d508146107925780638aba1215146107a75780638d47c6b7146107bc578063906a26e0146107ef578063928686e5146108045780639388f2ae1461081957610335565b8063367d88031161028557806359d3c7e2116102235780636b8b4192116101fd5780636b8b4192146107295780636d0a67de1461075357806372a88c16146107685780637a69ea7d1461077d57610335565b806359d3c7e21461069b5780635f98932f146106ff57806369ac57211461071457610335565b806348c54b9d1161025f57806348c54b9d14610654578063491cdf89146106695780635173ceae14610671578063590e1ae31461068657610335565b8063367d8803146105f75780633d144a1c1461060c57806343eaa6661461062157610335565b806319646eae116102f25780631f0a6993116102cc5780631f0a69931461056757806321c7557c1461059a5780632664244a146105cd5780633055d790146105e257610335565b806319646eae146104b85780631a0cb3a7146105065780631c3986571461055257610335565b806304029f521461033a578063060406181461040b578063076fa4ad1461043257806309e69ede1461045b5780630b97bc861461048e57806317ef6d36146104a3575b600080fd5b34801561034657600080fd5b506104096004803603606081101561035d57600080fd5b81019060208101813564010000000081111561037857600080fd5b82018360208201111561038a57600080fd5b803590602001918460208302840111640100000000831117156103ac57600080fd5b9193909290916020810190356401000000008111156103ca57600080fd5b8201836020820111156103dc57600080fd5b803590602001918460208302840111640100000000831117156103fe57600080fd5b919350915035610a7a565b005b34801561041757600080fd5b50610420610d03565b60408051918252519081900360200190f35b34801561043e57600080fd5b50610447610d58565b604080519115158252519081900360200190f35b34801561046757600080fd5b506104206004803603602081101561047e57600080fd5b50356001600160a01b0316610d61565b34801561049a57600080fd5b50610420610d73565b3480156104af57600080fd5b50610409610d79565b3480156104c457600080fd5b506104eb600480360360208110156104db57600080fd5b50356001600160a01b0316611092565b60408051921515835260208301919091528051918290030190f35b34801561051257600080fd5b506105396004803603602081101561052957600080fd5b50356001600160a01b03166110b1565b6040805192835260208301919091528051918290030190f35b34801561055e57600080fd5b5061042061118f565b34801561057357600080fd5b506104206004803603602081101561058a57600080fd5b50356001600160a01b0316611195565b3480156105a657600080fd5b50610420600480360360208110156105bd57600080fd5b50356001600160a01b03166111be565b3480156105d957600080fd5b506104206111dc565b3480156105ee57600080fd5b506104096111e2565b34801561060357600080fd5b50610409611306565b34801561061857600080fd5b5061044761143f565b34801561062d57600080fd5b506104206004803603602081101561064457600080fd5b50356001600160a01b031661145d565b34801561066057600080fd5b50610409611471565b610409611610565b34801561067d57600080fd5b506104476118dd565b34801561069257600080fd5b506104096118e6565b3480156106a757600080fd5b5061040960048036036103008110156106bf57600080fd5b506001600160a01b038135811691602081013590911690604081019060c08101906101408101351515906101608101359061018081019061024001611a5f565b34801561070b57600080fd5b50610409611baf565b34801561072057600080fd5b50610420611c67565b34801561073557600080fd5b506104096004803603602081101561074c57600080fd5b5035611c6d565b34801561075f57600080fd5b50610420611e92565b34801561077457600080fd5b50610420611e98565b34801561078957600080fd5b50610420611e9e565b34801561079e57600080fd5b50610447611ea4565b3480156107b357600080fd5b50610420611eda565b3480156107c857600080fd5b50610420600480360360208110156107df57600080fd5b50356001600160a01b0316611ee0565b3480156107fb57600080fd5b50610420611ef4565b34801561081057600080fd5b50610420611efa565b34801561082557600080fd5b50610420611f00565b34801561083a57600080fd5b50610409611f06565b34801561084f57600080fd5b5061044761204b565b34801561086457600080fd5b5061044761205a565b34801561087957600080fd5b506104206004803603602081101561089057600080fd5b5035612068565b3480156108a357600080fd5b50610447600480360360208110156108ba57600080fd5b50356001600160a01b0316612091565b3480156108d657600080fd5b506108f4600480360360208110156108ed57600080fd5b50356120a6565b60408051938452602084019290925282820152519081900360600190f35b6104096120c7565b34801561092657600080fd5b5061092f6123aa565b604080516001600160a01b039092168252519081900360200190f35b34801561095757600080fd5b506104476123b9565b34801561096c57600080fd5b506104476123d4565b34801561098157600080fd5b5061044761243a565b34801561099657600080fd5b50610447600480360360208110156109ad57600080fd5b50356001600160a01b0316612443565b3480156109c957600080fd5b50610447612461565b3480156109de57600080fd5b5061042061246a565b3480156109f357600080fd5b5061092f612470565b348015610a0857600080fd5b50610420612484565b348015610a1d57600080fd5b5061044761249d565b348015610a3257600080fd5b506104206124b8565b348015610a4757600080fd5b506104206124be565b348015610a5c57600080fd5b5061092f6124c4565b348015610a7157600080fd5b5061092f6124d3565b60005460ff1615610ac3576040805162461bcd60e51b815260206004820152600e60248201526d4e6f2072652d656e7472616e637960901b604482015290519081900360640190fd5b60008054600160ff19909116179081905561010090046001600160a01b03163314610b2d576040805162461bcd60e51b815260206004820152601560248201527413db9b1e48199858dd1bdc9e4818d85b8818d85b1b605a1b604482015290519081900360640190fd5b610b356123b9565b610b86576040805162461bcd60e51b815260206004820152601a60248201527f4e6f7420496e20526567697374726174696f6e20506572696f64000000000000604482015290519081900360640190fd5b838214610bda576040805162461bcd60e51b815260206004820152601c60248201527f52656769737465723a20496e76616c696420706172616d657465727300000000604482015290519081900360640190fd5b60005b84811015610cf1576000868683818110610bf357fe5b905060200201356001600160a01b031690506000858584818110610c1357fe5b90506020020135905060018110158015610c2e575060068111155b610c74576040805162461bcd60e51b8152602060048201526012602482015271092dcecc2d8d2c840e8d2cae440d2dcc8caf60731b604482015290519081900360640190fd5b610c7e82856124d9565b50610c88826125df565b610c928282612684565b610cdd576040805162461bcd60e51b815260206004820152601760248201527624b732b634b3b4b13632903337b9103a3432903a34b2b960491b604482015290519081900360640190fd5b610ce782826127a2565b5050600101610bdd565b50506000805460ff1916905550505050565b6000610d0d6123b9565b15610d1a57506000610d55565b610d2261249d565b15610d2f57506001610d55565b610d3761143f565b15610d4457506002610d55565b610d4c6118dd565b15610d55575060035b90565b60165460ff1681565b60176020526000908152604090205481565b60075481565b601454610100900460ff1615610dd6576040805162461bcd60e51b815260206004820152601a60248201527f66696e697368557020697320616c72656164792063616c6c6564000000000000604482015290519081900360640190fd5b610dde6123d4565b15610e28576040805162461bcd60e51b815260206004820152601560248201527450726573616c65206973207374696c6c206c69766560581b604482015290519081900360640190fd5b610e30611ea4565b15610e6c5760405162461bcd60e51b8152600401808060200182810382526031815260200180612e4b6031913960400191505060405180910390fd5b6013546003541115610ebe576040805162461bcd60e51b81526020600482015260166024820152750446964206e6f7420726561636820736f6674206361760541b604482015290519081900360640190fd5b6014805461ff001916610100179055601354600090610edc90612856565b90506000610ee8612484565b90506000610f018360135461287490919063ffffffff16565b90508215610fbb576000610f13612886565b6040516001600160a01b0391909116908590600081818185875af1925050503d8060008114610f5e576040519150601f19603f3d011682016040523d82523d6000602084013e610f63565b606091505b5050905080610fb9576040805162461bcd60e51b815260206004820152601e60248201527f4661696c656420746f2073656e642046656520746f20706c6174666f726d0000604482015290519081900360640190fd5b505b6001546040516000916001600160a01b03169083908381818185875af1925050503d8060008114611008576040519150601f19603f3d011682016040523d82523d6000602084013e61100d565b606091505b505090508061104d5760405162461bcd60e51b815260040180806020018281038252602b815260200180612d34602b913960400191505060405180910390fd5b821561108c57600061105e84612068565b60115490915061108a9060ff16611080576001546001600160a01b0316611084565b61dead5b8261290c565b505b50505050565b6010602052600090815260409020805460019091015460ff9091169082565b6000806110bc612cfb565b506001600160a01b0383166000908152601060209081526040918290208251808401909352805460ff161515835260010154908201526110fa612d12565b506020808201516000908152600c82526040908190208151606081018352815480825260018301549482019490945260029091015491810191909152600f5490919060ff161561115857600e546111519082612989565b945061117c565b61117981611173600d546004546129ae90919063ffffffff16565b90612989565b94505b61118585612068565b9350505050915091565b60095481565b6001600160a01b0381166000908152601760205260408120546111b781612068565b9392505050565b6001600160a01b031660009081526010602052604090206001015490565b600a5481565b60005461010090046001600160a01b0316331461123e576040805162461bcd60e51b815260206004820152601560248201527413db9b1e48199858dd1bdc9e4818d85b8818d85b1b605a1b604482015290519081900360640190fd5b60165460ff1615611296576040805162461bcd60e51b815260206004820152601e60248201527f546f6f206c6174652c20746f6b656e732061726520636c61696d61626c650000604482015290519081900360640190fd5b601454610100900460ff16156112f3576040805162461bcd60e51b815260206004820152601960248201527f546f6f206c6174652c2066696e69736855702063616c6c656400000000000000604482015290519081900360640190fd5b6014805462ff0000191662010000179055565b6001546001600160a01b03163314611365576040805162461bcd60e51b815260206004820152601c60248201527f4f6e6c792063616d706169676e206f776e65722063616e2063616c6c00000000604482015290519081900360640190fd5b60145460ff16156113bd576040805162461bcd60e51b815260206004820152601a60248201527f43616d706169676e20697320616c72656164792066756e646564000000000000604482015290519081900360640190fd5b60006113c7611e9e565b905060008111611417576040805162461bcd60e51b8152602060048201526016602482015275125b9d985b1a5908199d5b99081a5b88185b5bdd5b9d60521b604482015290519081900360640190fd5b6014805460ff1916600117905560025461143c906001600160a01b03163330846129c1565b50565b600a5460009042908110801590611457575060085481105b91505090565b600080611469836110b1565b949350505050565b60005460ff16156114ba576040805162461bcd60e51b815260206004820152600e60248201526d4e6f2072652d656e7472616e637960901b604482015290519081900360640190fd5b6000805460ff1916600117905560165460ff1661151e576040805162461bcd60e51b815260206004820152601d60248201527f546f6b656e73206e6f7420726561647920746f20636c61696d20796574000000604482015290519081900360640190fd5b3360009081526015602052604090205460ff1615611583576040805162461bcd60e51b815260206004820152601860248201527f596f75206861766520616c726561647920636c61696d65640000000000000000604482015290519081900360640190fd5b600061158e33611195565b905080156116035733600081815260156020908152604091829020805460ff19166001179055815142815290810184905281517fcb1e26772e882480176a3e649a5f7937dc0ec3f50126283faf56f927b070be80929181900390910190a2600254611603906001600160a01b03163383612a1b565b506000805460ff19169055565b60005460ff1615611659576040805162461bcd60e51b815260206004820152600e60248201526d4e6f2072652d656e7472616e637960901b604482015290519081900360640190fd5b6000805460ff1916600117905560145460ff166116ba576040805162461bcd60e51b815260206004820152601a60248201527910d85b5c185a59db881a5cc81b9bdd08199d5b991959081e595d60321b604482015290519081900360640190fd5b6116c26123d4565b61170a576040805162461bcd60e51b815260206004820152601460248201527343616d706169676e206973206e6f74206c69766560601b604482015290519081900360640190fd5b61171261143f565b611763576040805162461bcd60e51b815260206004820152601760248201527f4e6f7420696e20464346532073616c6520706572696f64000000000000000000604482015290519081900360640190fd5b61176c33612443565b6117ad576040805162461bcd60e51b815260206004820152600d60248201526c139bdd081c9959da5cd95c9959609a1b604482015290519081900360640190fd5b346117f2576040805162461bcd60e51b815260206004820152601060248201526f056616c75652043616e277420626520360841b604482015290519081900360640190fd5b6117fa612484565b341115611847576040805162461bcd60e51b8152602060048201526016602482015275125b9cdd59999a58d95b9d081d1bdad95b881b19599d60521b604482015290519081900360640190fd5b336000908152601760205260408120546118619034612a6d565b3360009081526017602052604090208190556013549091506118839034612a6d565b601355337f2bdd59583c8e5cc64165e86af2482dbe93e85c98b355b788aa592465b3f6920e42346118b381612068565b60408051938452602084019290925282820152519081900360600190a2506000805460ff19169055565b60085442101590565b6118ee611ea4565b6119295760405162461bcd60e51b8152600401808060200182810382526030815260200180612e1b6030913960400191505060405180910390fd5b33600090815260176020526040902054806119755760405162461bcd60e51b8152600401808060200182810382526026815260200180612df56026913960400191505060405180910390fd5b336000818152601760205260408082208290555190919083908381818185875af1925050503d80600081146119c6576040519150601f19603f3d011682016040523d82523d6000602084013e6119cb565b606091505b5050905080611a21576040805162461bcd60e51b815260206004820152601c60248201527f4661696c656420746f20726566756e642046544d20746f207573657200000000604482015290519081900360640190fd5b6040805142815260208101849052815133927f73f04af9dcc582a923ec15d3eea990fe34adabfff2879e28d44572e01a54abb6928290030190a25050565b60005461010090046001600160a01b03163314611aad5760405162461bcd60e51b8152600401808060200182810382526022815260200180612dd36022913960400191505060405180910390fd5b600280546001600160a01b038a81166001600160a01b03199283161790925560018054928a16929091169190911790558535600355602080870135600455604080880135600555606080890135600655873560075591870135600855860135600955850135600a556011805460ff1916851515179055600b83905560005b6006811015611ba4576040518060600160405280848360068110611b4b57fe5b60200201358152602001838360068110611b6157fe5b60209081029190910135825260009181018290526001938401808352600c8252604092839020845181559184015194820194909455910151600290910155611b2b565b505050505050505050565b60005461010090046001600160a01b0316331480611bd757506001546001600160a01b031633145b611c125760405162461bcd60e51b8152600401808060200182810382526027815260200180612ea66027913960400191505060405180910390fd5b601454610100900460ff16611c585760405162461bcd60e51b8152600401808060200182810382526026815260200180612d5f6026913960400191505060405180910390fd5b6016805460ff19166001179055565b60125481565b60005460ff1615611cb6576040805162461bcd60e51b815260206004820152600e60248201526d4e6f2072652d656e7472616e637960901b604482015290519081900360640190fd5b6000805460ff1916600117905560145460ff16611d17576040805162461bcd60e51b815260206004820152601a60248201527910d85b5c185a59db881a5cc81b9bdd08199d5b991959081e595d60321b604482015290519081900360640190fd5b33611d206123b9565b611d71576040805162461bcd60e51b815260206004820152601a60248201527f4e6f7420496e20526567697374726174696f6e20506572696f64000000000000604482015290519081900360640190fd5b611d7a81612443565b15611dc0576040805162461bcd60e51b8152602060048201526011602482015270105b1c9958591e481c9959da5cd95c9959607a1b604482015290519081900360640190fd5b60018210158015611dd2575060068211155b611e18576040805162461bcd60e51b8152602060048201526012602482015271092dcecc2d8d2c840e8d2cae440d2dcc8caf60731b604482015290519081900360640190fd5b611e2481600b546124d9565b50611e2f8183612684565b611e7a576040805162461bcd60e51b815260206004820152601760248201527624b732b634b3b4b13632903337b9103a3432903a34b2b960491b604482015290519081900360640190fd5b611e8481836127a2565b50506000805460ff19169055565b600d5481565b600e5481565b60055490565b60145460009062010000900460ff1615611ec057506001610d55565b6008544210158015611ed55750601354600354115b905090565b60065481565b600080611eec836110b1565b509392505050565b60035481565b60135481565b60055481565b6001546001600160a01b03163314611f65576040805162461bcd60e51b815260206004820152601c60248201527f4f6e6c792063616d706169676e206f776e65722063616e2063616c6c00000000604482015290519081900360640190fd5b611f6d611ea4565b611fa85760405162461bcd60e51b815260040180806020018281038252602d815260200180612d85602d913960400191505060405180910390fd5b6014805460ff19169055600254604080516370a0823160e01b815230600482015290516001600160a01b039092169160009183916370a0823191602480820192602092909190829003018186803b15801561200257600080fd5b505afa158015612016573d6000803e3d6000fd5b505050506040513d602081101561202c57600080fd5b5051600154909150612047906001600160a01b03168261290c565b5050565b60145462010000900460ff1681565b601454610100900460ff1681565b600061208b6004546120856005548561298990919063ffffffff16565b906129ae565b92915050565b60156020526000908152604090205460ff1681565b600c6020526000908152604090208054600182015460029092015490919083565b60005460ff1615612110576040805162461bcd60e51b815260206004820152600e60248201526d4e6f2072652d656e7472616e637960901b604482015290519081900360640190fd5b6000805460ff1916600117905560145460ff16612171576040805162461bcd60e51b815260206004820152601a60248201527910d85b5c185a59db881a5cc81b9bdd08199d5b991959081e595d60321b604482015290519081900360640190fd5b6121796123d4565b6121c1576040805162461bcd60e51b815260206004820152601460248201527343616d706169676e206973206e6f74206c69766560601b604482015290519081900360640190fd5b6121c961249d565b61221a576040805162461bcd60e51b815260206004820152601760248201527f4e6f7420696e20746965722073616c6520706572696f64000000000000000000604482015290519081900360640190fd5b61222333612443565b612264576040805162461bcd60e51b815260206004820152600d60248201526c139bdd081c9959da5cd95c9959609a1b604482015290519081900360640190fd5b600f5460ff1661228e57600d5460045461227d916129ae565b600e55600f805460ff191660011790555b346122d3576040805162461bcd60e51b815260206004820152601060248201526f056616c75652043616e277420626520360841b604482015290519081900360640190fd5b6122db612484565b341115612328576040805162461bcd60e51b8152602060048201526016602482015275125b9cdd59999a58d95b9d081d1bdad95b881b19599d60521b604482015290519081900360640190fd5b336000908152601760205260408120546123429034612a6d565b905061234d33611ee0565b81111561238b5760405162461bcd60e51b8152600401808060200182810382526021815260200180612db26021913960400191505060405180910390fd5b3360009081526017602052604090208190556013546118839034612a6d565b6001546001600160a01b031681565b60075460009042908110801590611457575060095411919050565b60145460009060ff1615806123f1575060145462010000900460ff165b156123fe57506000610d55565b60075442101561241057506000610d55565b600854421061242157506000610d55565b6004546013541061243457506000610d55565b50600190565b60145460ff1681565b6001600160a01b031660009081526010602052604090205460ff1690565b60115460ff1681565b60085481565b60005461010090046001600160a01b031681565b6000611ed560135460045461287490919063ffffffff16565b600954600090429081108015906114575750600a5411919050565b600b5481565b60045481565b6002546001600160a01b031681565b61dead81565b600080600060019054906101000a90046001600160a01b031690506000816001600160a01b031663b6c24e1f6040518163ffffffff1660e01b815260040160206040518083038186803b15801561252f57600080fd5b505afa158015612543573d6000803e3d6000fd5b505050506040513d602081101561255957600080fd5b50519050806001600160a01b03811663282d3fdf876125784289612a6d565b6040518363ffffffff1660e01b815260040180836001600160a01b0316815260200182815260200192505050600060405180830381600087803b1580156125be57600080fd5b505af11580156125d2573d6000803e3d6000fd5b5050505050505092915050565b6125e881612443565b1561143c576001600160a01b03811660009081526010602090815260408083206001908101548452600c909252909120600281015490916126299190612874565b60028201558054600d5461263c91612874565b600d5550604080518082018252600080825260208083018281526001600160a01b0395909516825260109052919091209051815460ff19169015151781559051600190910155565b600080600060019054906101000a90046001600160a01b031690506000816001600160a01b031663b6c24e1f6040518163ffffffff1660e01b815260040160206040518083038186803b1580156126da57600080fd5b505afa1580156126ee573d6000803e3d6000fd5b505050506040513d602081101561270457600080fd5b505160408051636021726760e01b81526001600160a01b038881166004830152915192935083926000928416916360217267916024808301926020929190829003018186803b15801561275657600080fd5b505afa15801561276a573d6000803e3d6000fd5b505050506040513d602081101561278057600080fd5b50516000878152600c6020526040902060010154111594505050505092915050565b6000818152600c6020526040902060028101546127c0906001612a6d565b60028201558054600d546127d391612a6d565b600d55604080518082018252600180825260208083018681526001600160a01b0388166000818152601084528690209451855460ff1916901515178555905193909201929092558251428152918201859052825190927fcda33a906ffa8a5f960826827500581f4613a5db7a84b250433e0d591a630938928290030190a2505050565b600061208b620f42406120856006548561298990919063ffffffff16565b60008282111561288057fe5b50900390565b600080600060019054906101000a90046001600160a01b03169050806001600160a01b0316634e7ceacb6040518163ffffffff1660e01b815260040160206040518083038186803b1580156128da57600080fd5b505afa1580156128ee573d6000803e3d6000fd5b505050506040513d602081101561290457600080fd5b505191505090565b6001546001600160a01b038381169116148061293257506001600160a01b03821661dead145b61296d5760405162461bcd60e51b8152600401808060200182810382526032815260200180612ecd6032913960400191505060405180910390fd5b6002546001600160a01b0316612984818484612a1b565b505050565b6000826129985750600061208b565b50818102818382816129a657fe5b041461208b57fe5b60008183816129b957fe5b049392505050565b604080516001600160a01b0380861660248301528416604482015260648082018490528251808303909101815260849091019091526020810180516001600160e01b03166323b872dd60e01b17905261108c908590612a7a565b604080516001600160a01b038416602482015260448082018490528251808303909101815260649091019091526020810180516001600160e01b031663a9059cbb60e01b179052612984908490612a7a565b8181018281101561208b57fe5b6060612acf826040518060400160405280602081526020017f5361666545524332303a206c6f772d6c6576656c2063616c6c206661696c6564815250856001600160a01b0316612b2b9092919063ffffffff16565b80519091501561298457808060200190516020811015612aee57600080fd5b50516129845760405162461bcd60e51b815260040180806020018281038252602a815260200180612e7c602a913960400191505060405180910390fd5b6060611469848460008585612b3f85612c51565b612b90576040805162461bcd60e51b815260206004820152601d60248201527f416464726573733a2063616c6c20746f206e6f6e2d636f6e7472616374000000604482015290519081900360640190fd5b60006060866001600160a01b031685876040518082805190602001908083835b60208310612bcf5780518252601f199092019160209182019101612bb0565b6001836020036101000a03801982511681845116808217855250505050505090500191505060006040518083038185875af1925050503d8060008114612c31576040519150601f19603f3d011682016040523d82523d6000602084013e612c36565b606091505b5091509150612c46828286612c57565b979650505050505050565b3b151590565b60608315612c665750816111b7565b825115612c765782518084602001fd5b8160405162461bcd60e51b81526004018080602001828103825283818151815260200191508051906020019080838360005b83811015612cc0578181015183820152602001612ca8565b50505050905090810190601f168015612ced5780820380516001836020036101000a031916815260200191505b509250505060405180910390fd5b604080518082019091526000808252602082015290565b6040518060600160405280600081526020016000815260200160008152509056fe4661696c656420746f2073656e642072656d61696e2046544d20746f2063616d706169676e206f776e657243616d706169676e206e6f742066696e6973686564207375636365737366756c6c79207965744f6e6c79206661696c6564206f722063616e63656c6c65642063616d706169676e2063616e20756e2d66756e64496e766573746d656e74206973206d6f7265207468616e20616c6c6f63617465644f6e6c7920666163746f727920616c6c6f77656420746f20696e697469616c697a65596f75206469646e277420706172746963697061746520696e207468652063616d706169676e43616e20726566756e6420666f72206661696c6564206f722063616e63656c6c65642063616d706169676e206f6e6c7950726573616c65206661696c6564206f722063616e63656c6c6564202c2063616e27742063616c6c2066696e69736855705361666545524332303a204552433230206f7065726174696f6e20646964206e6f7420737563636565644f6e6c7920666163746f7279206f722063616d706169676e206f776e65722063616e2063616c6c43616e206f6e6c792062652073656e7420746f2063616d706169676e206f776e6572206f72206275726e2061646472657373a26469706673582212203de21e62a775182081ab3a459d33d309a53d7b95557ea8c9da253b6449331a7d64736f6c634300060c003352656720416e6420546965722053616c652043616e2774204265204265666f7265205374617274204461746552656720416e6420546965722053616c652043616e277420426520416674657220456e642044617465537461727420646174652063616e277420626520686967686572207468616e20656e64206461746553746172742064617465206d75737420626520686967686572207468616e2063757272656e74206461746520536f6674206361702063616e277420626520686967686572207468616e206861726420636170a2646970667358221220d762a82e2586ca988a2ac20e12320749d321c73bc3fd2e6049d51c547802564c64736f6c634300060c0033",
			"opcodes": "PUSH1 0x80 PUSH1 0x40 MSTORE CALLVALUE DUP1 ISZERO PUSH2 0x10 JUMPI PUSH1 0x0 DUP1 REVERT JUMPDEST POP PUSH1 0x40 MLOAD PUSH2 0x3DC9 CODESIZE SUB DUP1 PUSH2 0x3DC9 DUP4 CODECOPY DUP2 DUP2 ADD PUSH1 0x40 MSTORE PUSH1 0x60 DUP2 LT ISZERO PUSH2 0x33 JUMPI PUSH1 0x0 DUP1 REVERT JUMPDEST POP DUP1 MLOAD PUSH1 0x20 DUP3 ADD MLOAD PUSH1 0x40 SWAP1 SWAP3 ADD MLOAD PUSH1 0x0 DUP1 SLOAD PUSH1 0x1 PUSH1 0x1 PUSH1 0xA0 SHL SUB NOT SWAP1 DUP2 AND CALLER OR SWAP1 SWAP2 SSTORE PUSH1 0x1 DUP1 SLOAD PUSH1 0x1 PUSH1 0x1 PUSH1 0xA0 SHL SUB SWAP6 DUP7 AND SWAP1 DUP4 AND OR SWAP1 SSTORE PUSH1 0x5 DUP1 SLOAD SWAP3 DUP6 AND SWAP3 DUP3 AND SWAP3 SWAP1 SWAP3 OR SWAP1 SWAP2 SSTORE PUSH1 0x2 DUP1 SLOAD SWAP4 SWAP1 SWAP3 AND SWAP3 AND SWAP2 SWAP1 SWAP2 OR SWAP1 SSTORE PUSH2 0x3D2E DUP1 PUSH2 0x9B PUSH1 0x0 CODECOPY PUSH1 0x0 RETURN INVALID PUSH1 0x80 PUSH1 0x40 MSTORE CALLVALUE DUP1 ISZERO PUSH2 0x10 JUMPI PUSH1 0x0 DUP1 REVERT JUMPDEST POP PUSH1 0x4 CALLDATASIZE LT PUSH2 0xA9 JUMPI PUSH1 0x0 CALLDATALOAD PUSH1 0xE0 SHR DUP1 PUSH4 0xA509F4D1 GT PUSH2 0x71 JUMPI DUP1 PUSH4 0xA509F4D1 EQ PUSH2 0x11B JUMPI DUP1 PUSH4 0xAF88E1F4 EQ PUSH2 0x167 JUMPI DUP1 PUSH4 0xB6C24E1F EQ PUSH2 0x269 JUMPI DUP1 PUSH4 0xC9FF6247 EQ PUSH2 0x271 JUMPI DUP1 PUSH4 0xCD63D7A1 EQ PUSH2 0x279 JUMPI DUP1 PUSH4 0xF2FDE38B EQ PUSH2 0x342 JUMPI PUSH2 0xA9 JUMP JUMPDEST DUP1 PUSH4 0x6661ABD EQ PUSH2 0xAE JUMPI DUP1 PUSH4 0x45598B4A EQ PUSH2 0xC8 JUMPI DUP1 PUSH4 0x4E7CEACB EQ PUSH2 0xE7 JUMPI DUP1 PUSH4 0x715018A6 EQ PUSH2 0x10B JUMPI DUP1 PUSH4 0x8DA5CB5B EQ PUSH2 0x113 JUMPI JUMPDEST PUSH1 0x0 DUP1 REVERT JUMPDEST PUSH2 0xB6 PUSH2 0x368 JUMP JUMPDEST PUSH1 0x40 DUP1 MLOAD SWAP2 DUP3 MSTORE MLOAD SWAP1 DUP2 SWAP1 SUB PUSH1 0x20 ADD SWAP1 RETURN JUMPDEST PUSH2 0xE5 PUSH1 0x4 DUP1 CALLDATASIZE SUB PUSH1 0x20 DUP2 LT ISZERO PUSH2 0xDE JUMPI PUSH1 0x0 DUP1 REVERT JUMPDEST POP CALLDATALOAD PUSH2 0x36E JUMP JUMPDEST STOP JUMPDEST PUSH2 0xEF PUSH2 0x4B7 JUMP JUMPDEST PUSH1 0x40 DUP1 MLOAD PUSH1 0x1 PUSH1 0x1 PUSH1 0xA0 SHL SUB SWAP1 SWAP3 AND DUP3 MSTORE MLOAD SWAP1 DUP2 SWAP1 SUB PUSH1 0x20 ADD SWAP1 RETURN JUMPDEST PUSH2 0xE5 PUSH2 0x4C6 JUMP JUMPDEST PUSH2 0xEF PUSH2 0x525 JUMP JUMPDEST PUSH2 0x138 PUSH1 0x4 DUP1 CALLDATASIZE SUB PUSH1 0x20 DUP2 LT ISZERO PUSH2 0x131 JUMPI PUSH1 0x0 DUP1 REVERT JUMPDEST POP CALLDATALOAD PUSH2 0x534 JUMP JUMPDEST PUSH1 0x40 MLOAD DUP1 DUP4 PUSH1 0x1 PUSH1 0x1 PUSH1 0xA0 SHL SUB AND DUP2 MSTORE PUSH1 0x20 ADD DUP3 PUSH1 0x1 PUSH1 0x1 PUSH1 0xA0 SHL SUB AND DUP2 MSTORE PUSH1 0x20 ADD SWAP3 POP POP POP PUSH1 0x40 MLOAD DUP1 SWAP2 SUB SWAP1 RETURN JUMPDEST PUSH2 0xEF PUSH1 0x4 DUP1 CALLDATASIZE SUB PUSH2 0x320 DUP2 LT ISZERO PUSH2 0x17E JUMPI PUSH1 0x0 DUP1 REVERT JUMPDEST PUSH1 0x40 DUP1 MLOAD PUSH1 0x80 DUP2 DUP2 ADD DUP4 MSTORE PUSH1 0x1 PUSH1 0x1 PUSH1 0xA0 SHL SUB DUP6 CALLDATALOAD DUP2 AND SWAP6 PUSH1 0x20 DUP2 ADD CALLDATALOAD SWAP6 SWAP5 DUP2 ADD CALLDATALOAD SWAP1 SWAP2 AND SWAP4 DUP2 ADD SWAP3 SWAP1 SWAP2 PUSH1 0xE0 DUP4 ADD SWAP2 SWAP1 PUSH1 0x60 DUP5 ADD SWAP1 PUSH1 0x4 SWAP1 DUP4 SWAP1 DUP4 SWAP1 DUP1 DUP3 DUP5 CALLDATACOPY PUSH1 0x0 SWAP3 ADD SWAP2 SWAP1 SWAP2 MSTORE POP POP PUSH1 0x40 DUP1 MLOAD PUSH1 0x80 DUP2 DUP2 ADD SWAP1 SWAP3 MSTORE SWAP3 SWAP6 SWAP5 SWAP4 DUP2 DUP2 ADD SWAP4 SWAP3 POP SWAP1 PUSH1 0x4 SWAP1 DUP4 SWAP1 DUP4 SWAP1 DUP1 DUP3 DUP5 CALLDATACOPY PUSH1 0x0 SWAP3 ADD SWAP2 SWAP1 SWAP2 MSTORE POP POP PUSH1 0x40 DUP1 MLOAD PUSH1 0xC0 DUP2 DUP2 ADD DUP4 MSTORE SWAP4 SWAP7 DUP6 CALLDATALOAD ISZERO ISZERO SWAP7 PUSH1 0x20 DUP8 ADD CALLDATALOAD SWAP7 SWAP2 SWAP6 SWAP1 SWAP5 POP PUSH2 0x100 DUP3 ADD SWAP4 SWAP1 SWAP2 ADD SWAP1 PUSH1 0x6 SWAP1 DUP4 SWAP1 DUP4 SWAP1 DUP1 DUP3 DUP5 CALLDATACOPY PUSH1 0x0 SWAP3 ADD SWAP2 SWAP1 SWAP2 MSTORE POP POP PUSH1 0x40 DUP1 MLOAD PUSH1 0xC0 DUP2 DUP2 ADD SWAP1 SWAP3 MSTORE SWAP3 SWAP6 SWAP5 SWAP4 DUP2 DUP2 ADD SWAP4 SWAP3 POP SWAP1 PUSH1 0x6 SWAP1 DUP4 SWAP1 DUP4 SWAP1 DUP1 DUP3 DUP5 CALLDATACOPY PUSH1 0x0 SWAP3 ADD SWAP2 SWAP1 SWAP2 MSTORE POP SWAP2 SWAP5 POP PUSH2 0x55A SWAP4 POP POP POP POP JUMP JUMPDEST PUSH2 0xEF PUSH2 0xA23 JUMP JUMPDEST PUSH2 0xEF PUSH2 0xA32 JUMP JUMPDEST PUSH2 0xE5 PUSH1 0x4 DUP1 CALLDATASIZE SUB PUSH1 0x80 DUP2 LT ISZERO PUSH2 0x28F JUMPI PUSH1 0x0 DUP1 REVERT JUMPDEST DUP2 CALLDATALOAD SWAP2 SWAP1 DUP2 ADD SWAP1 PUSH1 0x40 DUP2 ADD PUSH1 0x20 DUP3 ADD CALLDATALOAD PUSH5 0x100000000 DUP2 GT ISZERO PUSH2 0x2B1 JUMPI PUSH1 0x0 DUP1 REVERT JUMPDEST DUP3 ADD DUP4 PUSH1 0x20 DUP3 ADD GT ISZERO PUSH2 0x2C3 JUMPI PUSH1 0x0 DUP1 REVERT JUMPDEST DUP1 CALLDATALOAD SWAP1 PUSH1 0x20 ADD SWAP2 DUP5 PUSH1 0x20 DUP4 MUL DUP5 ADD GT PUSH5 0x100000000 DUP4 GT OR ISZERO PUSH2 0x2E5 JUMPI PUSH1 0x0 DUP1 REVERT JUMPDEST SWAP2 SWAP4 SWAP1 SWAP3 SWAP1 SWAP2 PUSH1 0x20 DUP2 ADD SWAP1 CALLDATALOAD PUSH5 0x100000000 DUP2 GT ISZERO PUSH2 0x303 JUMPI PUSH1 0x0 DUP1 REVERT JUMPDEST DUP3 ADD DUP4 PUSH1 0x20 DUP3 ADD GT ISZERO PUSH2 0x315 JUMPI PUSH1 0x0 DUP1 REVERT JUMPDEST DUP1 CALLDATALOAD SWAP1 PUSH1 0x20 ADD SWAP2 DUP5 PUSH1 0x20 DUP4 MUL DUP5 ADD GT PUSH5 0x100000000 DUP4 GT OR ISZERO PUSH2 0x337 JUMPI PUSH1 0x0 DUP1 REVERT JUMPDEST SWAP2 SWAP4 POP SWAP2 POP CALLDATALOAD PUSH2 0xA41 JUMP JUMPDEST PUSH2 0xE5 PUSH1 0x4 DUP1 CALLDATASIZE SUB PUSH1 0x20 DUP2 LT ISZERO PUSH2 0x358 JUMPI PUSH1 0x0 DUP1 REVERT JUMPDEST POP CALLDATALOAD PUSH1 0x1 PUSH1 0x1 PUSH1 0xA0 SHL SUB AND PUSH2 0xC00 JUMP JUMPDEST PUSH1 0x4 SLOAD DUP2 JUMP JUMPDEST PUSH1 0x0 SLOAD PUSH1 0x1 PUSH1 0x1 PUSH1 0xA0 SHL SUB AND CALLER EQ PUSH2 0x385 JUMPI PUSH1 0x0 DUP1 REVERT JUMPDEST PUSH1 0x4 SLOAD DUP2 LT PUSH2 0x3C8 JUMPI PUSH1 0x40 DUP1 MLOAD PUSH3 0x461BCD PUSH1 0xE5 SHL DUP2 MSTORE PUSH1 0x20 PUSH1 0x4 DUP3 ADD MSTORE PUSH1 0xA PUSH1 0x24 DUP3 ADD MSTORE PUSH10 0x125B9D985B1A59081251 PUSH1 0xB2 SHL PUSH1 0x44 DUP3 ADD MSTORE SWAP1 MLOAD SWAP1 DUP2 SWAP1 SUB PUSH1 0x64 ADD SWAP1 REVERT JUMPDEST PUSH2 0x3D0 PUSH2 0xC98 JUMP JUMPDEST POP PUSH1 0x0 DUP2 DUP2 MSTORE PUSH1 0x3 PUSH1 0x20 SWAP1 DUP2 MSTORE PUSH1 0x40 SWAP2 DUP3 SWAP1 KECCAK256 DUP3 MLOAD DUP1 DUP5 ADD SWAP1 SWAP4 MSTORE DUP1 SLOAD PUSH1 0x1 PUSH1 0x1 PUSH1 0xA0 SHL SUB SWAP1 DUP2 AND DUP1 DUP6 MSTORE PUSH1 0x1 SWAP1 SWAP3 ADD SLOAD AND SWAP2 DUP4 ADD SWAP2 SWAP1 SWAP2 MSTORE PUSH2 0x456 JUMPI PUSH1 0x40 DUP1 MLOAD PUSH3 0x461BCD PUSH1 0xE5 SHL DUP2 MSTORE PUSH1 0x20 PUSH1 0x4 DUP3 ADD MSTORE PUSH1 0x19 PUSH1 0x24 DUP3 ADD MSTORE PUSH25 0x125B9D985B1A590810D85B5C185A59DB8818DBDB9D1C9858DD PUSH1 0x3A SHL PUSH1 0x44 DUP3 ADD MSTORE SWAP1 MLOAD SWAP1 DUP2 SWAP1 SUB PUSH1 0x64 ADD SWAP1 REVERT JUMPDEST PUSH1 0x0 DUP2 PUSH1 0x0 ADD MLOAD SWAP1 POP DUP1 PUSH1 0x1 PUSH1 0x1 PUSH1 0xA0 SHL SUB AND PUSH4 0x3055D790 PUSH1 0x40 MLOAD DUP2 PUSH4 0xFFFFFFFF AND PUSH1 0xE0 SHL DUP2 MSTORE PUSH1 0x4 ADD PUSH1 0x0 PUSH1 0x40 MLOAD DUP1 DUP4 SUB DUP2 PUSH1 0x0 DUP8 DUP1 EXTCODESIZE ISZERO DUP1 ISZERO PUSH2 0x49A JUMPI PUSH1 0x0 DUP1 REVERT JUMPDEST POP GAS CALL ISZERO DUP1 ISZERO PUSH2 0x4AE JUMPI RETURNDATASIZE PUSH1 0x0 DUP1 RETURNDATACOPY RETURNDATASIZE PUSH1 0x0 REVERT JUMPDEST POP POP POP POP POP POP POP JUMP JUMPDEST PUSH1 0x5 SLOAD PUSH1 0x1 PUSH1 0x1 PUSH1 0xA0 SHL SUB AND SWAP1 JUMP JUMPDEST PUSH1 0x0 SLOAD PUSH1 0x1 PUSH1 0x1 PUSH1 0xA0 SHL SUB AND CALLER EQ PUSH2 0x4DD JUMPI PUSH1 0x0 DUP1 REVERT JUMPDEST PUSH1 0x0 DUP1 SLOAD PUSH1 0x40 MLOAD PUSH1 0x1 PUSH1 0x1 PUSH1 0xA0 SHL SUB SWAP1 SWAP2 AND SWAP2 PUSH32 0xF8DF31144D9C2F0F6B59D69B8B98ABD5459D07F2742C4DF920B25AAE33C64820 SWAP2 LOG2 PUSH1 0x0 DUP1 SLOAD PUSH1 0x1 PUSH1 0x1 PUSH1 0xA0 SHL SUB NOT AND SWAP1 SSTORE JUMP JUMPDEST PUSH1 0x0 SLOAD PUSH1 0x1 PUSH1 0x1 PUSH1 0xA0 SHL SUB AND DUP2 JUMP JUMPDEST PUSH1 0x3 PUSH1 0x20 MSTORE PUSH1 0x0 SWAP1 DUP2 MSTORE PUSH1 0x40 SWAP1 KECCAK256 DUP1 SLOAD PUSH1 0x1 SWAP1 SWAP2 ADD SLOAD PUSH1 0x1 PUSH1 0x1 PUSH1 0xA0 SHL SUB SWAP2 DUP3 AND SWAP2 AND DUP3 JUMP JUMPDEST PUSH1 0x0 DUP1 SLOAD PUSH1 0x1 PUSH1 0x1 PUSH1 0xA0 SHL SUB AND CALLER EQ PUSH2 0x572 JUMPI PUSH1 0x0 DUP1 REVERT JUMPDEST PUSH1 0x20 DUP8 ADD MLOAD DUP8 MLOAD LT PUSH2 0x5B5 JUMPI PUSH1 0x40 MLOAD PUSH3 0x461BCD PUSH1 0xE5 SHL DUP2 MSTORE PUSH1 0x4 ADD DUP1 DUP1 PUSH1 0x20 ADD DUP3 DUP2 SUB DUP3 MSTORE PUSH1 0x26 DUP2 MSTORE PUSH1 0x20 ADD DUP1 PUSH2 0x3CD3 PUSH1 0x26 SWAP2 CODECOPY PUSH1 0x40 ADD SWAP2 POP POP PUSH1 0x40 MLOAD DUP1 SWAP2 SUB SWAP1 REVERT JUMPDEST PUSH1 0x40 DUP8 ADD MLOAD PUSH2 0x60B JUMPI PUSH1 0x40 DUP1 MLOAD PUSH3 0x461BCD PUSH1 0xE5 SHL DUP2 MSTORE PUSH1 0x20 PUSH1 0x4 DUP3 ADD MSTORE PUSH1 0x1A PUSH1 0x24 DUP3 ADD MSTORE PUSH32 0x546F6B656E20666F722073616C65732063616E27742062652030000000000000 PUSH1 0x44 DUP3 ADD MSTORE SWAP1 MLOAD SWAP1 DUP2 SWAP1 SUB PUSH1 0x64 ADD SWAP1 REVERT JUMPDEST PUSH1 0x60 DUP8 ADD MLOAD PUSH3 0xF4240 LT ISZERO PUSH2 0x65C JUMPI PUSH1 0x40 DUP1 MLOAD PUSH3 0x461BCD PUSH1 0xE5 SHL DUP2 MSTORE PUSH1 0x20 PUSH1 0x4 DUP3 ADD MSTORE PUSH1 0x12 PUSH1 0x24 DUP3 ADD MSTORE PUSH18 0x496E76616C696420666565732076616C7565 PUSH1 0x70 SHL PUSH1 0x44 DUP3 ADD MSTORE SWAP1 MLOAD SWAP1 DUP2 SWAP1 SUB PUSH1 0x64 ADD SWAP1 REVERT JUMPDEST PUSH1 0x20 DUP7 ADD MLOAD DUP7 MLOAD LT PUSH2 0x69F JUMPI PUSH1 0x40 MLOAD PUSH3 0x461BCD PUSH1 0xE5 SHL DUP2 MSTORE PUSH1 0x4 ADD DUP1 DUP1 PUSH1 0x20 ADD DUP3 DUP2 SUB DUP3 MSTORE PUSH1 0x28 DUP2 MSTORE PUSH1 0x20 ADD DUP1 PUSH2 0x3C7F PUSH1 0x28 SWAP2 CODECOPY PUSH1 0x40 ADD SWAP2 POP POP PUSH1 0x40 MLOAD DUP1 SWAP2 SUB SWAP1 REVERT JUMPDEST PUSH1 0x40 DUP7 ADD MLOAD DUP7 MLOAD LT DUP1 ISZERO PUSH2 0x6B7 JUMPI POP PUSH1 0x60 DUP7 ADD MLOAD DUP7 MLOAD LT JUMPDEST PUSH2 0x6F2 JUMPI PUSH1 0x40 MLOAD PUSH3 0x461BCD PUSH1 0xE5 SHL DUP2 MSTORE PUSH1 0x4 ADD DUP1 DUP1 PUSH1 0x20 ADD DUP3 DUP2 SUB DUP3 MSTORE PUSH1 0x2C DUP2 MSTORE PUSH1 0x20 ADD DUP1 PUSH2 0x3C2A PUSH1 0x2C SWAP2 CODECOPY PUSH1 0x40 ADD SWAP2 POP POP PUSH1 0x40 MLOAD DUP1 SWAP2 SUB SWAP1 REVERT JUMPDEST PUSH1 0x40 DUP7 ADD MLOAD PUSH1 0x20 DUP8 ADD MLOAD GT DUP1 ISZERO PUSH2 0x710 JUMPI POP PUSH1 0x60 DUP7 ADD MLOAD PUSH1 0x20 DUP8 ADD MLOAD GT JUMPDEST PUSH2 0x74B JUMPI PUSH1 0x40 MLOAD PUSH3 0x461BCD PUSH1 0xE5 SHL DUP2 MSTORE PUSH1 0x4 ADD DUP1 DUP1 PUSH1 0x20 ADD DUP3 DUP2 SUB DUP3 MSTORE PUSH1 0x29 DUP2 MSTORE PUSH1 0x20 ADD DUP1 PUSH2 0x3C56 PUSH1 0x29 SWAP2 CODECOPY PUSH1 0x40 ADD SWAP2 POP POP PUSH1 0x40 MLOAD DUP1 SWAP2 SUB SWAP1 REVERT JUMPDEST PUSH1 0x60 DUP7 ADD MLOAD PUSH1 0x40 DUP8 ADD MLOAD LT PUSH2 0x7A7 JUMPI PUSH1 0x40 DUP1 MLOAD PUSH3 0x461BCD PUSH1 0xE5 SHL DUP2 MSTORE PUSH1 0x20 PUSH1 0x4 DUP3 ADD MSTORE PUSH1 0x1E PUSH1 0x24 DUP3 ADD MSTORE PUSH32 0x5265672043616E277420456E64206265666F726520746965722073616C650000 PUSH1 0x44 DUP3 ADD MSTORE SWAP1 MLOAD SWAP1 DUP2 SWAP1 SUB PUSH1 0x64 ADD SWAP1 REVERT JUMPDEST DUP6 MLOAD TIMESTAMP LT PUSH2 0x7E6 JUMPI PUSH1 0x40 MLOAD PUSH3 0x461BCD PUSH1 0xE5 SHL DUP2 MSTORE PUSH1 0x4 ADD DUP1 DUP1 PUSH1 0x20 ADD DUP3 DUP2 SUB DUP3 MSTORE PUSH1 0x2C DUP2 MSTORE PUSH1 0x20 ADD DUP1 PUSH2 0x3CA7 PUSH1 0x2C SWAP2 CODECOPY PUSH1 0x40 ADD SWAP2 POP POP PUSH1 0x40 MLOAD DUP1 SWAP2 SUB SWAP1 REVERT JUMPDEST PUSH1 0x60 PUSH1 0x40 MLOAD DUP1 PUSH1 0x20 ADD PUSH2 0x7F8 SWAP1 PUSH2 0xCAF JUMP JUMPDEST PUSH1 0x20 DUP3 ADD DUP2 SUB DUP3 MSTORE PUSH1 0x1F NOT PUSH1 0x1F DUP3 ADD AND PUSH1 0x40 MSTORE POP SWAP1 POP PUSH1 0x0 DUP12 DUP12 CALLER PUSH1 0x40 MLOAD PUSH1 0x20 ADD DUP1 DUP5 PUSH1 0x1 PUSH1 0x1 PUSH1 0xA0 SHL SUB AND PUSH1 0x60 SHL DUP2 MSTORE PUSH1 0x14 ADD DUP4 DUP2 MSTORE PUSH1 0x20 ADD DUP3 PUSH1 0x1 PUSH1 0x1 PUSH1 0xA0 SHL SUB AND PUSH1 0x60 SHL DUP2 MSTORE PUSH1 0x14 ADD SWAP4 POP POP POP POP PUSH1 0x40 MLOAD PUSH1 0x20 DUP2 DUP4 SUB SUB DUP2 MSTORE SWAP1 PUSH1 0x40 MSTORE DUP1 MLOAD SWAP1 PUSH1 0x20 ADD KECCAK256 SWAP1 POP DUP1 DUP3 MLOAD PUSH1 0x20 DUP5 ADD PUSH1 0x0 CREATE2 SWAP3 POP DUP3 PUSH1 0x1 PUSH1 0x1 PUSH1 0xA0 SHL SUB AND PUSH4 0x59D3C7E2 DUP14 DUP13 DUP13 DUP13 DUP13 DUP13 DUP13 DUP13 PUSH1 0x40 MLOAD DUP10 PUSH4 0xFFFFFFFF AND PUSH1 0xE0 SHL DUP2 MSTORE PUSH1 0x4 ADD DUP1 DUP10 PUSH1 0x1 PUSH1 0x1 PUSH1 0xA0 SHL SUB AND DUP2 MSTORE PUSH1 0x20 ADD DUP9 PUSH1 0x1 PUSH1 0x1 PUSH1 0xA0 SHL SUB AND DUP2 MSTORE PUSH1 0x20 ADD DUP8 PUSH1 0x4 PUSH1 0x20 MUL DUP1 DUP4 DUP4 PUSH1 0x0 JUMPDEST DUP4 DUP2 LT ISZERO PUSH2 0x8D9 JUMPI DUP2 DUP2 ADD MLOAD DUP4 DUP3 ADD MSTORE PUSH1 0x20 ADD PUSH2 0x8C1 JUMP JUMPDEST POP POP POP POP SWAP1 POP ADD DUP7 PUSH1 0x4 PUSH1 0x20 MUL DUP1 DUP4 DUP4 PUSH1 0x0 JUMPDEST DUP4 DUP2 LT ISZERO PUSH2 0x904 JUMPI DUP2 DUP2 ADD MLOAD DUP4 DUP3 ADD MSTORE PUSH1 0x20 ADD PUSH2 0x8EC JUMP JUMPDEST POP POP POP POP SWAP1 POP ADD DUP6 ISZERO ISZERO DUP2 MSTORE PUSH1 0x20 ADD DUP5 DUP2 MSTORE PUSH1 0x20 ADD DUP4 PUSH1 0x6 PUSH1 0x20 MUL DUP1 DUP4 DUP4 PUSH1 0x0 JUMPDEST DUP4 DUP2 LT ISZERO PUSH2 0x93D JUMPI DUP2 DUP2 ADD MLOAD DUP4 DUP3 ADD MSTORE PUSH1 0x20 ADD PUSH2 0x925 JUMP JUMPDEST POP POP POP POP SWAP1 POP ADD DUP3 PUSH1 0x6 PUSH1 0x20 MUL DUP1 DUP4 DUP4 PUSH1 0x0 JUMPDEST DUP4 DUP2 LT ISZERO PUSH2 0x968 JUMPI DUP2 DUP2 ADD MLOAD DUP4 DUP3 ADD MSTORE PUSH1 0x20 ADD PUSH2 0x950 JUMP JUMPDEST POP POP POP POP SWAP1 POP ADD SWAP9 POP POP POP POP POP POP POP POP POP PUSH1 0x0 PUSH1 0x40 MLOAD DUP1 DUP4 SUB DUP2 PUSH1 0x0 DUP8 DUP1 EXTCODESIZE ISZERO DUP1 ISZERO PUSH2 0x993 JUMPI PUSH1 0x0 DUP1 REVERT JUMPDEST POP GAS CALL ISZERO DUP1 ISZERO PUSH2 0x9A7 JUMPI RETURNDATASIZE PUSH1 0x0 DUP1 RETURNDATACOPY RETURNDATASIZE PUSH1 0x0 REVERT JUMPDEST POP POP PUSH1 0x40 DUP1 MLOAD DUP1 DUP3 ADD DUP3 MSTORE PUSH1 0x1 PUSH1 0x1 PUSH1 0xA0 SHL SUB DUP1 DUP9 AND DUP3 MSTORE DUP15 DUP2 AND PUSH1 0x20 DUP1 DUP5 ADD SWAP2 DUP3 MSTORE PUSH1 0x4 DUP1 SLOAD PUSH1 0x0 SWAP1 DUP2 MSTORE PUSH1 0x3 SWAP1 SWAP3 MSTORE SWAP5 SWAP1 KECCAK256 SWAP3 MLOAD DUP4 SLOAD SWAP1 DUP4 AND PUSH1 0x1 PUSH1 0x1 PUSH1 0xA0 SHL SUB NOT SWAP2 DUP3 AND OR DUP5 SSTORE SWAP1 MLOAD PUSH1 0x1 SWAP4 DUP5 ADD DUP1 SLOAD SWAP2 SWAP1 SWAP4 AND SWAP2 AND OR SWAP1 SSTORE SWAP1 SLOAD PUSH2 0xA11 SWAP4 POP SWAP2 POP PUSH2 0xC85 JUMP JUMPDEST PUSH1 0x4 SSTORE POP POP SWAP10 SWAP9 POP POP POP POP POP POP POP POP POP JUMP JUMPDEST PUSH1 0x2 SLOAD PUSH1 0x1 PUSH1 0x1 PUSH1 0xA0 SHL SUB AND SWAP1 JUMP JUMPDEST PUSH1 0x1 SLOAD PUSH1 0x1 PUSH1 0x1 PUSH1 0xA0 SHL SUB AND SWAP1 JUMP JUMPDEST PUSH1 0x0 SLOAD PUSH1 0x1 PUSH1 0x1 PUSH1 0xA0 SHL SUB AND CALLER EQ PUSH2 0xA58 JUMPI PUSH1 0x0 DUP1 REVERT JUMPDEST PUSH1 0x4 SLOAD DUP7 LT PUSH2 0xA9B JUMPI PUSH1 0x40 DUP1 MLOAD PUSH3 0x461BCD PUSH1 0xE5 SHL DUP2 MSTORE PUSH1 0x20 PUSH1 0x4 DUP3 ADD MSTORE PUSH1 0xA PUSH1 0x24 DUP3 ADD MSTORE PUSH10 0x125B9D985B1A59081251 PUSH1 0xB2 SHL PUSH1 0x44 DUP3 ADD MSTORE SWAP1 MLOAD SWAP1 DUP2 SWAP1 SUB PUSH1 0x64 ADD SWAP1 REVERT JUMPDEST PUSH2 0xAA3 PUSH2 0xC98 JUMP JUMPDEST POP PUSH1 0x0 DUP7 DUP2 MSTORE PUSH1 0x3 PUSH1 0x20 SWAP1 DUP2 MSTORE PUSH1 0x40 SWAP2 DUP3 SWAP1 KECCAK256 DUP3 MLOAD DUP1 DUP5 ADD SWAP1 SWAP4 MSTORE DUP1 SLOAD PUSH1 0x1 PUSH1 0x1 PUSH1 0xA0 SHL SUB SWAP1 DUP2 AND DUP1 DUP6 MSTORE PUSH1 0x1 SWAP1 SWAP3 ADD SLOAD AND SWAP2 DUP4 ADD SWAP2 SWAP1 SWAP2 MSTORE PUSH2 0xB29 JUMPI PUSH1 0x40 DUP1 MLOAD PUSH3 0x461BCD PUSH1 0xE5 SHL DUP2 MSTORE PUSH1 0x20 PUSH1 0x4 DUP3 ADD MSTORE PUSH1 0x19 PUSH1 0x24 DUP3 ADD MSTORE PUSH25 0x125B9D985B1A590810D85B5C185A59DB8818DBDB9D1C9858DD PUSH1 0x3A SHL PUSH1 0x44 DUP3 ADD MSTORE SWAP1 MLOAD SWAP1 DUP2 SWAP1 SUB PUSH1 0x64 ADD SWAP1 REVERT JUMPDEST DUP1 MLOAD PUSH1 0x40 MLOAD PUSH4 0x2014FA9 PUSH1 0xE1 SHL DUP2 MSTORE PUSH1 0x44 DUP2 ADD DUP5 SWAP1 MSTORE PUSH1 0x60 PUSH1 0x4 DUP3 ADD SWAP1 DUP2 MSTORE PUSH1 0x64 DUP3 ADD DUP9 SWAP1 MSTORE PUSH1 0x1 PUSH1 0x1 PUSH1 0xA0 SHL SUB DUP4 AND SWAP2 PUSH4 0x4029F52 SWAP2 DUP11 SWAP2 DUP11 SWAP2 DUP11 SWAP2 DUP11 SWAP2 DUP11 SWAP2 DUP2 SWAP1 PUSH1 0x24 DUP2 ADD SWAP1 PUSH1 0x84 ADD DUP9 PUSH1 0x20 DUP10 MUL DUP1 DUP3 DUP5 CALLDATACOPY PUSH1 0x0 DUP4 DUP3 ADD MSTORE PUSH1 0x1F ADD PUSH1 0x1F NOT AND SWAP1 SWAP2 ADD DUP5 DUP2 SUB DUP4 MSTORE DUP7 DUP2 MSTORE PUSH1 0x20 SWAP1 DUP2 ADD SWAP2 POP DUP8 SWAP1 DUP8 MUL DUP1 DUP3 DUP5 CALLDATACOPY PUSH1 0x0 DUP2 DUP5 ADD MSTORE PUSH1 0x1F NOT PUSH1 0x1F DUP3 ADD AND SWAP1 POP DUP1 DUP4 ADD SWAP3 POP POP POP SWAP8 POP POP POP POP POP POP POP POP PUSH1 0x0 PUSH1 0x40 MLOAD DUP1 DUP4 SUB DUP2 PUSH1 0x0 DUP8 DUP1 EXTCODESIZE ISZERO DUP1 ISZERO PUSH2 0xBDE JUMPI PUSH1 0x0 DUP1 REVERT JUMPDEST POP GAS CALL ISZERO DUP1 ISZERO PUSH2 0xBF2 JUMPI RETURNDATASIZE PUSH1 0x0 DUP1 RETURNDATACOPY RETURNDATASIZE PUSH1 0x0 REVERT JUMPDEST POP POP POP POP POP POP POP POP POP POP POP POP JUMP JUMPDEST PUSH1 0x0 SLOAD PUSH1 0x1 PUSH1 0x1 PUSH1 0xA0 SHL SUB AND CALLER EQ PUSH2 0xC17 JUMPI PUSH1 0x0 DUP1 REVERT JUMPDEST PUSH1 0x1 PUSH1 0x1 PUSH1 0xA0 SHL SUB DUP2 AND PUSH2 0xC2A JUMPI PUSH1 0x0 DUP1 REVERT JUMPDEST PUSH1 0x0 DUP1 SLOAD PUSH1 0x40 MLOAD PUSH1 0x1 PUSH1 0x1 PUSH1 0xA0 SHL SUB DUP1 DUP6 AND SWAP4 SWAP3 AND SWAP2 PUSH32 0x8BE0079C531659141344CD1FD0A4F28419497F9722A3DAAFE3B4186F6B6457E0 SWAP2 LOG3 PUSH1 0x0 DUP1 SLOAD PUSH1 0x1 PUSH1 0x1 PUSH1 0xA0 SHL SUB NOT AND PUSH1 0x1 PUSH1 0x1 PUSH1 0xA0 SHL SUB SWAP3 SWAP1 SWAP3 AND SWAP2 SWAP1 SWAP2 OR SWAP1 SSTORE JUMP JUMPDEST DUP2 DUP2 ADD DUP3 DUP2 LT ISZERO PUSH2 0xC92 JUMPI INVALID JUMPDEST SWAP3 SWAP2 POP POP JUMP JUMPDEST PUSH1 0x40 DUP1 MLOAD DUP1 DUP3 ADD SWAP1 SWAP2 MSTORE PUSH1 0x0 DUP1 DUP3 MSTORE PUSH1 0x20 DUP3 ADD MSTORE SWAP1 JUMP JUMPDEST PUSH2 0x2F6D DUP1 PUSH2 0xCBD DUP4 CODECOPY ADD SWAP1 JUMP INVALID PUSH1 0x80 PUSH1 0x40 MSTORE CALLVALUE DUP1 ISZERO PUSH2 0x10 JUMPI PUSH1 0x0 DUP1 REVERT JUMPDEST POP PUSH1 0x0 DUP1 SLOAD PUSH2 0x100 CALLER MUL PUSH2 0x100 PUSH1 0x1 PUSH1 0xA8 SHL SUB NOT SWAP1 SWAP2 AND OR SWAP1 SSTORE PUSH2 0x2F34 DUP1 PUSH2 0x39 PUSH1 0x0 CODECOPY PUSH1 0x0 RETURN INVALID PUSH1 0x80 PUSH1 0x40 MSTORE PUSH1 0x4 CALLDATASIZE LT PUSH2 0x335 JUMPI PUSH1 0x0 CALLDATALOAD PUSH1 0xE0 SHR DUP1 PUSH4 0x8762D508 GT PUSH2 0x1AB JUMPI DUP1 PUSH4 0xB17FAC22 GT PUSH2 0xF7 JUMPI DUP1 PUSH4 0xC45A0155 GT PUSH2 0x95 JUMPI DUP1 PUSH4 0xEBE749D3 GT PUSH2 0x6F JUMPI DUP1 PUSH4 0xEBE749D3 EQ PUSH2 0xA26 JUMPI DUP1 PUSH4 0xFB86A404 EQ PUSH2 0xA3B JUMPI DUP1 PUSH4 0xFC0C546A EQ PUSH2 0xA50 JUMPI DUP1 PUSH4 0xFCCC2813 EQ PUSH2 0xA65 JUMPI PUSH2 0x335 JUMP JUMPDEST DUP1 PUSH4 0xC45A0155 EQ PUSH2 0x9E7 JUMPI DUP1 PUSH4 0xD6A022B8 EQ PUSH2 0x9FC JUMPI DUP1 PUSH4 0xE49BCD01 EQ PUSH2 0xA11 JUMPI PUSH2 0x335 JUMP JUMPDEST DUP1 PUSH4 0xB9B237C2 GT PUSH2 0xD1 JUMPI DUP1 PUSH4 0xB9B237C2 EQ PUSH2 0x975 JUMPI DUP1 PUSH4 0xBCCBC36C EQ PUSH2 0x98A JUMPI DUP1 PUSH4 0xC039DEC3 EQ PUSH2 0x9BD JUMPI DUP1 PUSH4 0xC24A0F8B EQ PUSH2 0x9D2 JUMPI PUSH2 0x335 JUMP JUMPDEST DUP1 PUSH4 0xB17FAC22 EQ PUSH2 0x91A JUMPI DUP1 PUSH4 0xB73E08F3 EQ PUSH2 0x94B JUMPI DUP1 PUSH4 0xB8F7A665 EQ PUSH2 0x960 JUMPI PUSH2 0x335 JUMP JUMPDEST DUP1 PUSH4 0x9724CB6E GT PUSH2 0x164 JUMPI DUP1 PUSH4 0xA24BCF46 GT PUSH2 0x13E JUMPI DUP1 PUSH4 0xA24BCF46 EQ PUSH2 0x86D JUMPI DUP1 PUSH4 0xA3070A3A EQ PUSH2 0x897 JUMPI DUP1 PUSH4 0xA5022737 EQ PUSH2 0x8CA JUMPI DUP1 PUSH4 0xACE97E26 EQ PUSH2 0x912 JUMPI PUSH2 0x335 JUMP JUMPDEST DUP1 PUSH4 0x9724CB6E EQ PUSH2 0x82E JUMPI DUP1 PUSH4 0x9A82A09A EQ PUSH2 0x843 JUMPI DUP1 PUSH4 0x9D90BF42 EQ PUSH2 0x858 JUMPI PUSH2 0x335 JUMP JUMPDEST DUP1 PUSH4 0x8762D508 EQ PUSH2 0x792 JUMPI DUP1 PUSH4 0x8ABA1215 EQ PUSH2 0x7A7 JUMPI DUP1 PUSH4 0x8D47C6B7 EQ PUSH2 0x7BC JUMPI DUP1 PUSH4 0x906A26E0 EQ PUSH2 0x7EF JUMPI DUP1 PUSH4 0x928686E5 EQ PUSH2 0x804 JUMPI DUP1 PUSH4 0x9388F2AE EQ PUSH2 0x819 JUMPI PUSH2 0x335 JUMP JUMPDEST DUP1 PUSH4 0x367D8803 GT PUSH2 0x285 JUMPI DUP1 PUSH4 0x59D3C7E2 GT PUSH2 0x223 JUMPI DUP1 PUSH4 0x6B8B4192 GT PUSH2 0x1FD JUMPI DUP1 PUSH4 0x6B8B4192 EQ PUSH2 0x729 JUMPI DUP1 PUSH4 0x6D0A67DE EQ PUSH2 0x753 JUMPI DUP1 PUSH4 0x72A88C16 EQ PUSH2 0x768 JUMPI DUP1 PUSH4 0x7A69EA7D EQ PUSH2 0x77D JUMPI PUSH2 0x335 JUMP JUMPDEST DUP1 PUSH4 0x59D3C7E2 EQ PUSH2 0x69B JUMPI DUP1 PUSH4 0x5F98932F EQ PUSH2 0x6FF JUMPI DUP1 PUSH4 0x69AC5721 EQ PUSH2 0x714 JUMPI PUSH2 0x335 JUMP JUMPDEST DUP1 PUSH4 0x48C54B9D GT PUSH2 0x25F JUMPI DUP1 PUSH4 0x48C54B9D EQ PUSH2 0x654 JUMPI DUP1 PUSH4 0x491CDF89 EQ PUSH2 0x669 JUMPI DUP1 PUSH4 0x5173CEAE EQ PUSH2 0x671 JUMPI DUP1 PUSH4 0x590E1AE3 EQ PUSH2 0x686 JUMPI PUSH2 0x335 JUMP JUMPDEST DUP1 PUSH4 0x367D8803 EQ PUSH2 0x5F7 JUMPI DUP1 PUSH4 0x3D144A1C EQ PUSH2 0x60C JUMPI DUP1 PUSH4 0x43EAA666 EQ PUSH2 0x621 JUMPI PUSH2 0x335 JUMP JUMPDEST DUP1 PUSH4 0x19646EAE GT PUSH2 0x2F2 JUMPI DUP1 PUSH4 0x1F0A6993 GT PUSH2 0x2CC JUMPI DUP1 PUSH4 0x1F0A6993 EQ PUSH2 0x567 JUMPI DUP1 PUSH4 0x21C7557C EQ PUSH2 0x59A JUMPI DUP1 PUSH4 0x2664244A EQ PUSH2 0x5CD JUMPI DUP1 PUSH4 0x3055D790 EQ PUSH2 0x5E2 JUMPI PUSH2 0x335 JUMP JUMPDEST DUP1 PUSH4 0x19646EAE EQ PUSH2 0x4B8 JUMPI DUP1 PUSH4 0x1A0CB3A7 EQ PUSH2 0x506 JUMPI DUP1 PUSH4 0x1C398657 EQ PUSH2 0x552 JUMPI PUSH2 0x335 JUMP JUMPDEST DUP1 PUSH4 0x4029F52 EQ PUSH2 0x33A JUMPI DUP1 PUSH4 0x6040618 EQ PUSH2 0x40B JUMPI DUP1 PUSH4 0x76FA4AD EQ PUSH2 0x432 JUMPI DUP1 PUSH4 0x9E69EDE EQ PUSH2 0x45B JUMPI DUP1 PUSH4 0xB97BC86 EQ PUSH2 0x48E JUMPI DUP1 PUSH4 0x17EF6D36 EQ PUSH2 0x4A3 JUMPI JUMPDEST PUSH1 0x0 DUP1 REVERT JUMPDEST CALLVALUE DUP1 ISZERO PUSH2 0x346 JUMPI PUSH1 0x0 DUP1 REVERT JUMPDEST POP PUSH2 0x409 PUSH1 0x4 DUP1 CALLDATASIZE SUB PUSH1 0x60 DUP2 LT ISZERO PUSH2 0x35D JUMPI PUSH1 0x0 DUP1 REVERT JUMPDEST DUP2 ADD SWAP1 PUSH1 0x20 DUP2 ADD DUP2 CALLDATALOAD PUSH5 0x100000000 DUP2 GT ISZERO PUSH2 0x378 JUMPI PUSH1 0x0 DUP1 REVERT JUMPDEST DUP3 ADD DUP4 PUSH1 0x20 DUP3 ADD GT ISZERO PUSH2 0x38A JUMPI PUSH1 0x0 DUP1 REVERT JUMPDEST DUP1 CALLDATALOAD SWAP1 PUSH1 0x20 ADD SWAP2 DUP5 PUSH1 0x20 DUP4 MUL DUP5 ADD GT PUSH5 0x100000000 DUP4 GT OR ISZERO PUSH2 0x3AC JUMPI PUSH1 0x0 DUP1 REVERT JUMPDEST SWAP2 SWAP4 SWAP1 SWAP3 SWAP1 SWAP2 PUSH1 0x20 DUP2 ADD SWAP1 CALLDATALOAD PUSH5 0x100000000 DUP2 GT ISZERO PUSH2 0x3CA JUMPI PUSH1 0x0 DUP1 REVERT JUMPDEST DUP3 ADD DUP4 PUSH1 0x20 DUP3 ADD GT ISZERO PUSH2 0x3DC JUMPI PUSH1 0x0 DUP1 REVERT JUMPDEST DUP1 CALLDATALOAD SWAP1 PUSH1 0x20 ADD SWAP2 DUP5 PUSH1 0x20 DUP4 MUL DUP5 ADD GT PUSH5 0x100000000 DUP4 GT OR ISZERO PUSH2 0x3FE JUMPI PUSH1 0x0 DUP1 REVERT JUMPDEST SWAP2 SWAP4 POP SWAP2 POP CALLDATALOAD PUSH2 0xA7A JUMP JUMPDEST STOP JUMPDEST CALLVALUE DUP1 ISZERO PUSH2 0x417 JUMPI PUSH1 0x0 DUP1 REVERT JUMPDEST POP PUSH2 0x420 PUSH2 0xD03 JUMP JUMPDEST PUSH1 0x40 DUP1 MLOAD SWAP2 DUP3 MSTORE MLOAD SWAP1 DUP2 SWAP1 SUB PUSH1 0x20 ADD SWAP1 RETURN JUMPDEST CALLVALUE DUP1 ISZERO PUSH2 0x43E JUMPI PUSH1 0x0 DUP1 REVERT JUMPDEST POP PUSH2 0x447 PUSH2 0xD58 JUMP JUMPDEST PUSH1 0x40 DUP1 MLOAD SWAP2 ISZERO ISZERO DUP3 MSTORE MLOAD SWAP1 DUP2 SWAP1 SUB PUSH1 0x20 ADD SWAP1 RETURN JUMPDEST CALLVALUE DUP1 ISZERO PUSH2 0x467 JUMPI PUSH1 0x0 DUP1 REVERT JUMPDEST POP PUSH2 0x420 PUSH1 0x4 DUP1 CALLDATASIZE SUB PUSH1 0x20 DUP2 LT ISZERO PUSH2 0x47E JUMPI PUSH1 0x0 DUP1 REVERT JUMPDEST POP CALLDATALOAD PUSH1 0x1 PUSH1 0x1 PUSH1 0xA0 SHL SUB AND PUSH2 0xD61 JUMP JUMPDEST CALLVALUE DUP1 ISZERO PUSH2 0x49A JUMPI PUSH1 0x0 DUP1 REVERT JUMPDEST POP PUSH2 0x420 PUSH2 0xD73 JUMP JUMPDEST CALLVALUE DUP1 ISZERO PUSH2 0x4AF JUMPI PUSH1 0x0 DUP1 REVERT JUMPDEST POP PUSH2 0x409 PUSH2 0xD79 JUMP JUMPDEST CALLVALUE DUP1 ISZERO PUSH2 0x4C4 JUMPI PUSH1 0x0 DUP1 REVERT JUMPDEST POP PUSH2 0x4EB PUSH1 0x4 DUP1 CALLDATASIZE SUB PUSH1 0x20 DUP2 LT ISZERO PUSH2 0x4DB JUMPI PUSH1 0x0 DUP1 REVERT JUMPDEST POP CALLDATALOAD PUSH1 0x1 PUSH1 0x1 PUSH1 0xA0 SHL SUB AND PUSH2 0x1092 JUMP JUMPDEST PUSH1 0x40 DUP1 MLOAD SWAP3 ISZERO ISZERO DUP4 MSTORE PUSH1 0x20 DUP4 ADD SWAP2 SWAP1 SWAP2 MSTORE DUP1 MLOAD SWAP2 DUP3 SWAP1 SUB ADD SWAP1 RETURN JUMPDEST CALLVALUE DUP1 ISZERO PUSH2 0x512 JUMPI PUSH1 0x0 DUP1 REVERT JUMPDEST POP PUSH2 0x539 PUSH1 0x4 DUP1 CALLDATASIZE SUB PUSH1 0x20 DUP2 LT ISZERO PUSH2 0x529 JUMPI PUSH1 0x0 DUP1 REVERT JUMPDEST POP CALLDATALOAD PUSH1 0x1 PUSH1 0x1 PUSH1 0xA0 SHL SUB AND PUSH2 0x10B1 JUMP JUMPDEST PUSH1 0x40 DUP1 MLOAD SWAP3 DUP4 MSTORE PUSH1 0x20 DUP4 ADD SWAP2 SWAP1 SWAP2 MSTORE DUP1 MLOAD SWAP2 DUP3 SWAP1 SUB ADD SWAP1 RETURN JUMPDEST CALLVALUE DUP1 ISZERO PUSH2 0x55E JUMPI PUSH1 0x0 DUP1 REVERT JUMPDEST POP PUSH2 0x420 PUSH2 0x118F JUMP JUMPDEST CALLVALUE DUP1 ISZERO PUSH2 0x573 JUMPI PUSH1 0x0 DUP1 REVERT JUMPDEST POP PUSH2 0x420 PUSH1 0x4 DUP1 CALLDATASIZE SUB PUSH1 0x20 DUP2 LT ISZERO PUSH2 0x58A JUMPI PUSH1 0x0 DUP1 REVERT JUMPDEST POP CALLDATALOAD PUSH1 0x1 PUSH1 0x1 PUSH1 0xA0 SHL SUB AND PUSH2 0x1195 JUMP JUMPDEST CALLVALUE DUP1 ISZERO PUSH2 0x5A6 JUMPI PUSH1 0x0 DUP1 REVERT JUMPDEST POP PUSH2 0x420 PUSH1 0x4 DUP1 CALLDATASIZE SUB PUSH1 0x20 DUP2 LT ISZERO PUSH2 0x5BD JUMPI PUSH1 0x0 DUP1 REVERT JUMPDEST POP CALLDATALOAD PUSH1 0x1 PUSH1 0x1 PUSH1 0xA0 SHL SUB AND PUSH2 0x11BE JUMP JUMPDEST CALLVALUE DUP1 ISZERO PUSH2 0x5D9 JUMPI PUSH1 0x0 DUP1 REVERT JUMPDEST POP PUSH2 0x420 PUSH2 0x11DC JUMP JUMPDEST CALLVALUE DUP1 ISZERO PUSH2 0x5EE JUMPI PUSH1 0x0 DUP1 REVERT JUMPDEST POP PUSH2 0x409 PUSH2 0x11E2 JUMP JUMPDEST CALLVALUE DUP1 ISZERO PUSH2 0x603 JUMPI PUSH1 0x0 DUP1 REVERT JUMPDEST POP PUSH2 0x409 PUSH2 0x1306 JUMP JUMPDEST CALLVALUE DUP1 ISZERO PUSH2 0x618 JUMPI PUSH1 0x0 DUP1 REVERT JUMPDEST POP PUSH2 0x447 PUSH2 0x143F JUMP JUMPDEST CALLVALUE DUP1 ISZERO PUSH2 0x62D JUMPI PUSH1 0x0 DUP1 REVERT JUMPDEST POP PUSH2 0x420 PUSH1 0x4 DUP1 CALLDATASIZE SUB PUSH1 0x20 DUP2 LT ISZERO PUSH2 0x644 JUMPI PUSH1 0x0 DUP1 REVERT JUMPDEST POP CALLDATALOAD PUSH1 0x1 PUSH1 0x1 PUSH1 0xA0 SHL SUB AND PUSH2 0x145D JUMP JUMPDEST CALLVALUE DUP1 ISZERO PUSH2 0x660 JUMPI PUSH1 0x0 DUP1 REVERT JUMPDEST POP PUSH2 0x409 PUSH2 0x1471 JUMP JUMPDEST PUSH2 0x409 PUSH2 0x1610 JUMP JUMPDEST CALLVALUE DUP1 ISZERO PUSH2 0x67D JUMPI PUSH1 0x0 DUP1 REVERT JUMPDEST POP PUSH2 0x447 PUSH2 0x18DD JUMP JUMPDEST CALLVALUE DUP1 ISZERO PUSH2 0x692 JUMPI PUSH1 0x0 DUP1 REVERT JUMPDEST POP PUSH2 0x409 PUSH2 0x18E6 JUMP JUMPDEST CALLVALUE DUP1 ISZERO PUSH2 0x6A7 JUMPI PUSH1 0x0 DUP1 REVERT JUMPDEST POP PUSH2 0x409 PUSH1 0x4 DUP1 CALLDATASIZE SUB PUSH2 0x300 DUP2 LT ISZERO PUSH2 0x6BF JUMPI PUSH1 0x0 DUP1 REVERT JUMPDEST POP PUSH1 0x1 PUSH1 0x1 PUSH1 0xA0 SHL SUB DUP2 CALLDATALOAD DUP2 AND SWAP2 PUSH1 0x20 DUP2 ADD CALLDATALOAD SWAP1 SWAP2 AND SWAP1 PUSH1 0x40 DUP2 ADD SWAP1 PUSH1 0xC0 DUP2 ADD SWAP1 PUSH2 0x140 DUP2 ADD CALLDATALOAD ISZERO ISZERO SWAP1 PUSH2 0x160 DUP2 ADD CALLDATALOAD SWAP1 PUSH2 0x180 DUP2 ADD SWAP1 PUSH2 0x240 ADD PUSH2 0x1A5F JUMP JUMPDEST CALLVALUE DUP1 ISZERO PUSH2 0x70B JUMPI PUSH1 0x0 DUP1 REVERT JUMPDEST POP PUSH2 0x409 PUSH2 0x1BAF JUMP JUMPDEST CALLVALUE DUP1 ISZERO PUSH2 0x720 JUMPI PUSH1 0x0 DUP1 REVERT JUMPDEST POP PUSH2 0x420 PUSH2 0x1C67 JUMP JUMPDEST CALLVALUE DUP1 ISZERO PUSH2 0x735 JUMPI PUSH1 0x0 DUP1 REVERT JUMPDEST POP PUSH2 0x409 PUSH1 0x4 DUP1 CALLDATASIZE SUB PUSH1 0x20 DUP2 LT ISZERO PUSH2 0x74C JUMPI PUSH1 0x0 DUP1 REVERT JUMPDEST POP CALLDATALOAD PUSH2 0x1C6D JUMP JUMPDEST CALLVALUE DUP1 ISZERO PUSH2 0x75F JUMPI PUSH1 0x0 DUP1 REVERT JUMPDEST POP PUSH2 0x420 PUSH2 0x1E92 JUMP JUMPDEST CALLVALUE DUP1 ISZERO PUSH2 0x774 JUMPI PUSH1 0x0 DUP1 REVERT JUMPDEST POP PUSH2 0x420 PUSH2 0x1E98 JUMP JUMPDEST CALLVALUE DUP1 ISZERO PUSH2 0x789 JUMPI PUSH1 0x0 DUP1 REVERT JUMPDEST POP PUSH2 0x420 PUSH2 0x1E9E JUMP JUMPDEST CALLVALUE DUP1 ISZERO PUSH2 0x79E JUMPI PUSH1 0x0 DUP1 REVERT JUMPDEST POP PUSH2 0x447 PUSH2 0x1EA4 JUMP JUMPDEST CALLVALUE DUP1 ISZERO PUSH2 0x7B3 JUMPI PUSH1 0x0 DUP1 REVERT JUMPDEST POP PUSH2 0x420 PUSH2 0x1EDA JUMP JUMPDEST CALLVALUE DUP1 ISZERO PUSH2 0x7C8 JUMPI PUSH1 0x0 DUP1 REVERT JUMPDEST POP PUSH2 0x420 PUSH1 0x4 DUP1 CALLDATASIZE SUB PUSH1 0x20 DUP2 LT ISZERO PUSH2 0x7DF JUMPI PUSH1 0x0 DUP1 REVERT JUMPDEST POP CALLDATALOAD PUSH1 0x1 PUSH1 0x1 PUSH1 0xA0 SHL SUB AND PUSH2 0x1EE0 JUMP JUMPDEST CALLVALUE DUP1 ISZERO PUSH2 0x7FB JUMPI PUSH1 0x0 DUP1 REVERT JUMPDEST POP PUSH2 0x420 PUSH2 0x1EF4 JUMP JUMPDEST CALLVALUE DUP1 ISZERO PUSH2 0x810 JUMPI PUSH1 0x0 DUP1 REVERT JUMPDEST POP PUSH2 0x420 PUSH2 0x1EFA JUMP JUMPDEST CALLVALUE DUP1 ISZERO PUSH2 0x825 JUMPI PUSH1 0x0 DUP1 REVERT JUMPDEST POP PUSH2 0x420 PUSH2 0x1F00 JUMP JUMPDEST CALLVALUE DUP1 ISZERO PUSH2 0x83A JUMPI PUSH1 0x0 DUP1 REVERT JUMPDEST POP PUSH2 0x409 PUSH2 0x1F06 JUMP JUMPDEST CALLVALUE DUP1 ISZERO PUSH2 0x84F JUMPI PUSH1 0x0 DUP1 REVERT JUMPDEST POP PUSH2 0x447 PUSH2 0x204B JUMP JUMPDEST CALLVALUE DUP1 ISZERO PUSH2 0x864 JUMPI PUSH1 0x0 DUP1 REVERT JUMPDEST POP PUSH2 0x447 PUSH2 0x205A JUMP JUMPDEST CALLVALUE DUP1 ISZERO PUSH2 0x879 JUMPI PUSH1 0x0 DUP1 REVERT JUMPDEST POP PUSH2 0x420 PUSH1 0x4 DUP1 CALLDATASIZE SUB PUSH1 0x20 DUP2 LT ISZERO PUSH2 0x890 JUMPI PUSH1 0x0 DUP1 REVERT JUMPDEST POP CALLDATALOAD PUSH2 0x2068 JUMP JUMPDEST CALLVALUE DUP1 ISZERO PUSH2 0x8A3 JUMPI PUSH1 0x0 DUP1 REVERT JUMPDEST POP PUSH2 0x447 PUSH1 0x4 DUP1 CALLDATASIZE SUB PUSH1 0x20 DUP2 LT ISZERO PUSH2 0x8BA JUMPI PUSH1 0x0 DUP1 REVERT JUMPDEST POP CALLDATALOAD PUSH1 0x1 PUSH1 0x1 PUSH1 0xA0 SHL SUB AND PUSH2 0x2091 JUMP JUMPDEST CALLVALUE DUP1 ISZERO PUSH2 0x8D6 JUMPI PUSH1 0x0 DUP1 REVERT JUMPDEST POP PUSH2 0x8F4 PUSH1 0x4 DUP1 CALLDATASIZE SUB PUSH1 0x20 DUP2 LT ISZERO PUSH2 0x8ED JUMPI PUSH1 0x0 DUP1 REVERT JUMPDEST POP CALLDATALOAD PUSH2 0x20A6 JUMP JUMPDEST PUSH1 0x40 DUP1 MLOAD SWAP4 DUP5 MSTORE PUSH1 0x20 DUP5 ADD SWAP3 SWAP1 SWAP3 MSTORE DUP3 DUP3 ADD MSTORE MLOAD SWAP1 DUP2 SWAP1 SUB PUSH1 0x60 ADD SWAP1 RETURN JUMPDEST PUSH2 0x409 PUSH2 0x20C7 JUMP JUMPDEST CALLVALUE DUP1 ISZERO PUSH2 0x926 JUMPI PUSH1 0x0 DUP1 REVERT JUMPDEST POP PUSH2 0x92F PUSH2 0x23AA JUMP JUMPDEST PUSH1 0x40 DUP1 MLOAD PUSH1 0x1 PUSH1 0x1 PUSH1 0xA0 SHL SUB SWAP1 SWAP3 AND DUP3 MSTORE MLOAD SWAP1 DUP2 SWAP1 SUB PUSH1 0x20 ADD SWAP1 RETURN JUMPDEST CALLVALUE DUP1 ISZERO PUSH2 0x957 JUMPI PUSH1 0x0 DUP1 REVERT JUMPDEST POP PUSH2 0x447 PUSH2 0x23B9 JUMP JUMPDEST CALLVALUE DUP1 ISZERO PUSH2 0x96C JUMPI PUSH1 0x0 DUP1 REVERT JUMPDEST POP PUSH2 0x447 PUSH2 0x23D4 JUMP JUMPDEST CALLVALUE DUP1 ISZERO PUSH2 0x981 JUMPI PUSH1 0x0 DUP1 REVERT JUMPDEST POP PUSH2 0x447 PUSH2 0x243A JUMP JUMPDEST CALLVALUE DUP1 ISZERO PUSH2 0x996 JUMPI PUSH1 0x0 DUP1 REVERT JUMPDEST POP PUSH2 0x447 PUSH1 0x4 DUP1 CALLDATASIZE SUB PUSH1 0x20 DUP2 LT ISZERO PUSH2 0x9AD JUMPI PUSH1 0x0 DUP1 REVERT JUMPDEST POP CALLDATALOAD PUSH1 0x1 PUSH1 0x1 PUSH1 0xA0 SHL SUB AND PUSH2 0x2443 JUMP JUMPDEST CALLVALUE DUP1 ISZERO PUSH2 0x9C9 JUMPI PUSH1 0x0 DUP1 REVERT JUMPDEST POP PUSH2 0x447 PUSH2 0x2461 JUMP JUMPDEST CALLVALUE DUP1 ISZERO PUSH2 0x9DE JUMPI PUSH1 0x0 DUP1 REVERT JUMPDEST POP PUSH2 0x420 PUSH2 0x246A JUMP JUMPDEST CALLVALUE DUP1 ISZERO PUSH2 0x9F3 JUMPI PUSH1 0x0 DUP1 REVERT JUMPDEST POP PUSH2 0x92F PUSH2 0x2470 JUMP JUMPDEST CALLVALUE DUP1 ISZERO PUSH2 0xA08 JUMPI PUSH1 0x0 DUP1 REVERT JUMPDEST POP PUSH2 0x420 PUSH2 0x2484 JUMP JUMPDEST CALLVALUE DUP1 ISZERO PUSH2 0xA1D JUMPI PUSH1 0x0 DUP1 REVERT JUMPDEST POP PUSH2 0x447 PUSH2 0x249D JUMP JUMPDEST CALLVALUE DUP1 ISZERO PUSH2 0xA32 JUMPI PUSH1 0x0 DUP1 REVERT JUMPDEST POP PUSH2 0x420 PUSH2 0x24B8 JUMP JUMPDEST CALLVALUE DUP1 ISZERO PUSH2 0xA47 JUMPI PUSH1 0x0 DUP1 REVERT JUMPDEST POP PUSH2 0x420 PUSH2 0x24BE JUMP JUMPDEST CALLVALUE DUP1 ISZERO PUSH2 0xA5C JUMPI PUSH1 0x0 DUP1 REVERT JUMPDEST POP PUSH2 0x92F PUSH2 0x24C4 JUMP JUMPDEST CALLVALUE DUP1 ISZERO PUSH2 0xA71 JUMPI PUSH1 0x0 DUP1 REVERT JUMPDEST POP PUSH2 0x92F PUSH2 0x24D3 JUMP JUMPDEST PUSH1 0x0 SLOAD PUSH1 0xFF AND ISZERO PUSH2 0xAC3 JUMPI PUSH1 0x40 DUP1 MLOAD PUSH3 0x461BCD PUSH1 0xE5 SHL DUP2 MSTORE PUSH1 0x20 PUSH1 0x4 DUP3 ADD MSTORE PUSH1 0xE PUSH1 0x24 DUP3 ADD MSTORE PUSH14 0x4E6F2072652D656E7472616E6379 PUSH1 0x90 SHL PUSH1 0x44 DUP3 ADD MSTORE SWAP1 MLOAD SWAP1 DUP2 SWAP1 SUB PUSH1 0x64 ADD SWAP1 REVERT JUMPDEST PUSH1 0x0 DUP1 SLOAD PUSH1 0x1 PUSH1 0xFF NOT SWAP1 SWAP2 AND OR SWAP1 DUP2 SWAP1 SSTORE PUSH2 0x100 SWAP1 DIV PUSH1 0x1 PUSH1 0x1 PUSH1 0xA0 SHL SUB AND CALLER EQ PUSH2 0xB2D JUMPI PUSH1 0x40 DUP1 MLOAD PUSH3 0x461BCD PUSH1 0xE5 SHL DUP2 MSTORE PUSH1 0x20 PUSH1 0x4 DUP3 ADD MSTORE PUSH1 0x15 PUSH1 0x24 DUP3 ADD MSTORE PUSH21 0x13DB9B1E48199858DD1BDC9E4818D85B8818D85B1B PUSH1 0x5A SHL PUSH1 0x44 DUP3 ADD MSTORE SWAP1 MLOAD SWAP1 DUP2 SWAP1 SUB PUSH1 0x64 ADD SWAP1 REVERT JUMPDEST PUSH2 0xB35 PUSH2 0x23B9 JUMP JUMPDEST PUSH2 0xB86 JUMPI PUSH1 0x40 DUP1 MLOAD PUSH3 0x461BCD PUSH1 0xE5 SHL DUP2 MSTORE PUSH1 0x20 PUSH1 0x4 DUP3 ADD MSTORE PUSH1 0x1A PUSH1 0x24 DUP3 ADD MSTORE PUSH32 0x4E6F7420496E20526567697374726174696F6E20506572696F64000000000000 PUSH1 0x44 DUP3 ADD MSTORE SWAP1 MLOAD SWAP1 DUP2 SWAP1 SUB PUSH1 0x64 ADD SWAP1 REVERT JUMPDEST DUP4 DUP3 EQ PUSH2 0xBDA JUMPI PUSH1 0x40 DUP1 MLOAD PUSH3 0x461BCD PUSH1 0xE5 SHL DUP2 MSTORE PUSH1 0x20 PUSH1 0x4 DUP3 ADD MSTORE PUSH1 0x1C PUSH1 0x24 DUP3 ADD MSTORE PUSH32 0x52656769737465723A20496E76616C696420706172616D657465727300000000 PUSH1 0x44 DUP3 ADD MSTORE SWAP1 MLOAD SWAP1 DUP2 SWAP1 SUB PUSH1 0x64 ADD SWAP1 REVERT JUMPDEST PUSH1 0x0 JUMPDEST DUP5 DUP2 LT ISZERO PUSH2 0xCF1 JUMPI PUSH1 0x0 DUP7 DUP7 DUP4 DUP2 DUP2 LT PUSH2 0xBF3 JUMPI INVALID JUMPDEST SWAP1 POP PUSH1 0x20 MUL ADD CALLDATALOAD PUSH1 0x1 PUSH1 0x1 PUSH1 0xA0 SHL SUB AND SWAP1 POP PUSH1 0x0 DUP6 DUP6 DUP5 DUP2 DUP2 LT PUSH2 0xC13 JUMPI INVALID JUMPDEST SWAP1 POP PUSH1 0x20 MUL ADD CALLDATALOAD SWAP1 POP PUSH1 0x1 DUP2 LT ISZERO DUP1 ISZERO PUSH2 0xC2E JUMPI POP PUSH1 0x6 DUP2 GT ISZERO JUMPDEST PUSH2 0xC74 JUMPI PUSH1 0x40 DUP1 MLOAD PUSH3 0x461BCD PUSH1 0xE5 SHL DUP2 MSTORE PUSH1 0x20 PUSH1 0x4 DUP3 ADD MSTORE PUSH1 0x12 PUSH1 0x24 DUP3 ADD MSTORE PUSH18 0x92DCECC2D8D2C840E8D2CAE440D2DCC8CAF PUSH1 0x73 SHL PUSH1 0x44 DUP3 ADD MSTORE SWAP1 MLOAD SWAP1 DUP2 SWAP1 SUB PUSH1 0x64 ADD SWAP1 REVERT JUMPDEST PUSH2 0xC7E DUP3 DUP6 PUSH2 0x24D9 JUMP JUMPDEST POP PUSH2 0xC88 DUP3 PUSH2 0x25DF JUMP JUMPDEST PUSH2 0xC92 DUP3 DUP3 PUSH2 0x2684 JUMP JUMPDEST PUSH2 0xCDD JUMPI PUSH1 0x40 DUP1 MLOAD PUSH3 0x461BCD PUSH1 0xE5 SHL DUP2 MSTORE PUSH1 0x20 PUSH1 0x4 DUP3 ADD MSTORE PUSH1 0x17 PUSH1 0x24 DUP3 ADD MSTORE PUSH23 0x24B732B634B3B4B13632903337B9103A3432903A34B2B9 PUSH1 0x49 SHL PUSH1 0x44 DUP3 ADD MSTORE SWAP1 MLOAD SWAP1 DUP2 SWAP1 SUB PUSH1 0x64 ADD SWAP1 REVERT JUMPDEST PUSH2 0xCE7 DUP3 DUP3 PUSH2 0x27A2 JUMP JUMPDEST POP POP PUSH1 0x1 ADD PUSH2 0xBDD JUMP JUMPDEST POP POP PUSH1 0x0 DUP1 SLOAD PUSH1 0xFF NOT AND SWAP1 SSTORE POP POP POP POP JUMP JUMPDEST PUSH1 0x0 PUSH2 0xD0D PUSH2 0x23B9 JUMP JUMPDEST ISZERO PUSH2 0xD1A JUMPI POP PUSH1 0x0 PUSH2 0xD55 JUMP JUMPDEST PUSH2 0xD22 PUSH2 0x249D JUMP JUMPDEST ISZERO PUSH2 0xD2F JUMPI POP PUSH1 0x1 PUSH2 0xD55 JUMP JUMPDEST PUSH2 0xD37 PUSH2 0x143F JUMP JUMPDEST ISZERO PUSH2 0xD44 JUMPI POP PUSH1 0x2 PUSH2 0xD55 JUMP JUMPDEST PUSH2 0xD4C PUSH2 0x18DD JUMP JUMPDEST ISZERO PUSH2 0xD55 JUMPI POP PUSH1 0x3 JUMPDEST SWAP1 JUMP JUMPDEST PUSH1 0x16 SLOAD PUSH1 0xFF AND DUP2 JUMP JUMPDEST PUSH1 0x17 PUSH1 0x20 MSTORE PUSH1 0x0 SWAP1 DUP2 MSTORE PUSH1 0x40 SWAP1 KECCAK256 SLOAD DUP2 JUMP JUMPDEST PUSH1 0x7 SLOAD DUP2 JUMP JUMPDEST PUSH1 0x14 SLOAD PUSH2 0x100 SWAP1 DIV PUSH1 0xFF AND ISZERO PUSH2 0xDD6 JUMPI PUSH1 0x40 DUP1 MLOAD PUSH3 0x461BCD PUSH1 0xE5 SHL DUP2 MSTORE PUSH1 0x20 PUSH1 0x4 DUP3 ADD MSTORE PUSH1 0x1A PUSH1 0x24 DUP3 ADD MSTORE PUSH32 0x66696E697368557020697320616C72656164792063616C6C6564000000000000 PUSH1 0x44 DUP3 ADD MSTORE SWAP1 MLOAD SWAP1 DUP2 SWAP1 SUB PUSH1 0x64 ADD SWAP1 REVERT JUMPDEST PUSH2 0xDDE PUSH2 0x23D4 JUMP JUMPDEST ISZERO PUSH2 0xE28 JUMPI PUSH1 0x40 DUP1 MLOAD PUSH3 0x461BCD PUSH1 0xE5 SHL DUP2 MSTORE PUSH1 0x20 PUSH1 0x4 DUP3 ADD MSTORE PUSH1 0x15 PUSH1 0x24 DUP3 ADD MSTORE PUSH21 0x50726573616C65206973207374696C6C206C697665 PUSH1 0x58 SHL PUSH1 0x44 DUP3 ADD MSTORE SWAP1 MLOAD SWAP1 DUP2 SWAP1 SUB PUSH1 0x64 ADD SWAP1 REVERT JUMPDEST PUSH2 0xE30 PUSH2 0x1EA4 JUMP JUMPDEST ISZERO PUSH2 0xE6C JUMPI PUSH1 0x40 MLOAD PUSH3 0x461BCD PUSH1 0xE5 SHL DUP2 MSTORE PUSH1 0x4 ADD DUP1 DUP1 PUSH1 0x20 ADD DUP3 DUP2 SUB DUP3 MSTORE PUSH1 0x31 DUP2 MSTORE PUSH1 0x20 ADD DUP1 PUSH2 0x2E4B PUSH1 0x31 SWAP2 CODECOPY PUSH1 0x40 ADD SWAP2 POP POP PUSH1 0x40 MLOAD DUP1 SWAP2 SUB SWAP1 REVERT JUMPDEST PUSH1 0x13 SLOAD PUSH1 0x3 SLOAD GT ISZERO PUSH2 0xEBE JUMPI PUSH1 0x40 DUP1 MLOAD PUSH3 0x461BCD PUSH1 0xE5 SHL DUP2 MSTORE PUSH1 0x20 PUSH1 0x4 DUP3 ADD MSTORE PUSH1 0x16 PUSH1 0x24 DUP3 ADD MSTORE PUSH22 0x446964206E6F7420726561636820736F66742063617 PUSH1 0x54 SHL PUSH1 0x44 DUP3 ADD MSTORE SWAP1 MLOAD SWAP1 DUP2 SWAP1 SUB PUSH1 0x64 ADD SWAP1 REVERT JUMPDEST PUSH1 0x14 DUP1 SLOAD PUSH2 0xFF00 NOT AND PUSH2 0x100 OR SWAP1 SSTORE PUSH1 0x13 SLOAD PUSH1 0x0 SWAP1 PUSH2 0xEDC SWAP1 PUSH2 0x2856 JUMP JUMPDEST SWAP1 POP PUSH1 0x0 PUSH2 0xEE8 PUSH2 0x2484 JUMP JUMPDEST SWAP1 POP PUSH1 0x0 PUSH2 0xF01 DUP4 PUSH1 0x13 SLOAD PUSH2 0x2874 SWAP1 SWAP2 SWAP1 PUSH4 0xFFFFFFFF AND JUMP JUMPDEST SWAP1 POP DUP3 ISZERO PUSH2 0xFBB JUMPI PUSH1 0x0 PUSH2 0xF13 PUSH2 0x2886 JUMP JUMPDEST PUSH1 0x40 MLOAD PUSH1 0x1 PUSH1 0x1 PUSH1 0xA0 SHL SUB SWAP2 SWAP1 SWAP2 AND SWAP1 DUP6 SWAP1 PUSH1 0x0 DUP2 DUP2 DUP2 DUP6 DUP8 GAS CALL SWAP3 POP POP POP RETURNDATASIZE DUP1 PUSH1 0x0 DUP2 EQ PUSH2 0xF5E JUMPI PUSH1 0x40 MLOAD SWAP2 POP PUSH1 0x1F NOT PUSH1 0x3F RETURNDATASIZE ADD AND DUP3 ADD PUSH1 0x40 MSTORE RETURNDATASIZE DUP3 MSTORE RETURNDATASIZE PUSH1 0x0 PUSH1 0x20 DUP5 ADD RETURNDATACOPY PUSH2 0xF63 JUMP JUMPDEST PUSH1 0x60 SWAP2 POP JUMPDEST POP POP SWAP1 POP DUP1 PUSH2 0xFB9 JUMPI PUSH1 0x40 DUP1 MLOAD PUSH3 0x461BCD PUSH1 0xE5 SHL DUP2 MSTORE PUSH1 0x20 PUSH1 0x4 DUP3 ADD MSTORE PUSH1 0x1E PUSH1 0x24 DUP3 ADD MSTORE PUSH32 0x4661696C656420746F2073656E642046656520746F20706C6174666F726D0000 PUSH1 0x44 DUP3 ADD MSTORE SWAP1 MLOAD SWAP1 DUP2 SWAP1 SUB PUSH1 0x64 ADD SWAP1 REVERT JUMPDEST POP JUMPDEST PUSH1 0x1 SLOAD PUSH1 0x40 MLOAD PUSH1 0x0 SWAP2 PUSH1 0x1 PUSH1 0x1 PUSH1 0xA0 SHL SUB AND SWAP1 DUP4 SWAP1 DUP4 DUP2 DUP2 DUP2 DUP6 DUP8 GAS CALL SWAP3 POP POP POP RETURNDATASIZE DUP1 PUSH1 0x0 DUP2 EQ PUSH2 0x1008 JUMPI PUSH1 0x40 MLOAD SWAP2 POP PUSH1 0x1F NOT PUSH1 0x3F RETURNDATASIZE ADD AND DUP3 ADD PUSH1 0x40 MSTORE RETURNDATASIZE DUP3 MSTORE RETURNDATASIZE PUSH1 0x0 PUSH1 0x20 DUP5 ADD RETURNDATACOPY PUSH2 0x100D JUMP JUMPDEST PUSH1 0x60 SWAP2 POP JUMPDEST POP POP SWAP1 POP DUP1 PUSH2 0x104D JUMPI PUSH1 0x40 MLOAD PUSH3 0x461BCD PUSH1 0xE5 SHL DUP2 MSTORE PUSH1 0x4 ADD DUP1 DUP1 PUSH1 0x20 ADD DUP3 DUP2 SUB DUP3 MSTORE PUSH1 0x2B DUP2 MSTORE PUSH1 0x20 ADD DUP1 PUSH2 0x2D34 PUSH1 0x2B SWAP2 CODECOPY PUSH1 0x40 ADD SWAP2 POP POP PUSH1 0x40 MLOAD DUP1 SWAP2 SUB SWAP1 REVERT JUMPDEST DUP3 ISZERO PUSH2 0x108C JUMPI PUSH1 0x0 PUSH2 0x105E DUP5 PUSH2 0x2068 JUMP JUMPDEST PUSH1 0x11 SLOAD SWAP1 SWAP2 POP PUSH2 0x108A SWAP1 PUSH1 0xFF AND PUSH2 0x1080 JUMPI PUSH1 0x1 SLOAD PUSH1 0x1 PUSH1 0x1 PUSH1 0xA0 SHL SUB AND PUSH2 0x1084 JUMP JUMPDEST PUSH2 0xDEAD JUMPDEST DUP3 PUSH2 0x290C JUMP JUMPDEST POP JUMPDEST POP POP POP POP JUMP JUMPDEST PUSH1 0x10 PUSH1 0x20 MSTORE PUSH1 0x0 SWAP1 DUP2 MSTORE PUSH1 0x40 SWAP1 KECCAK256 DUP1 SLOAD PUSH1 0x1 SWAP1 SWAP2 ADD SLOAD PUSH1 0xFF SWAP1 SWAP2 AND SWAP1 DUP3 JUMP JUMPDEST PUSH1 0x0 DUP1 PUSH2 0x10BC PUSH2 0x2CFB JUMP JUMPDEST POP PUSH1 0x1 PUSH1 0x1 PUSH1 0xA0 SHL SUB DUP4 AND PUSH1 0x0 SWAP1 DUP2 MSTORE PUSH1 0x10 PUSH1 0x20 SWAP1 DUP2 MSTORE PUSH1 0x40 SWAP2 DUP3 SWAP1 KECCAK256 DUP3 MLOAD DUP1 DUP5 ADD SWAP1 SWAP4 MSTORE DUP1 SLOAD PUSH1 0xFF AND ISZERO ISZERO DUP4 MSTORE PUSH1 0x1 ADD SLOAD SWAP1 DUP3 ADD MSTORE PUSH2 0x10FA PUSH2 0x2D12 JUMP JUMPDEST POP PUSH1 0x20 DUP1 DUP3 ADD MLOAD PUSH1 0x0 SWAP1 DUP2 MSTORE PUSH1 0xC DUP3 MSTORE PUSH1 0x40 SWAP1 DUP2 SWAP1 KECCAK256 DUP2 MLOAD PUSH1 0x60 DUP2 ADD DUP4 MSTORE DUP2 SLOAD DUP1 DUP3 MSTORE PUSH1 0x1 DUP4 ADD SLOAD SWAP5 DUP3 ADD SWAP5 SWAP1 SWAP5 MSTORE PUSH1 0x2 SWAP1 SWAP2 ADD SLOAD SWAP2 DUP2 ADD SWAP2 SWAP1 SWAP2 MSTORE PUSH1 0xF SLOAD SWAP1 SWAP2 SWAP1 PUSH1 0xFF AND ISZERO PUSH2 0x1158 JUMPI PUSH1 0xE SLOAD PUSH2 0x1151 SWAP1 DUP3 PUSH2 0x2989 JUMP JUMPDEST SWAP5 POP PUSH2 0x117C JUMP JUMPDEST PUSH2 0x1179 DUP2 PUSH2 0x1173 PUSH1 0xD SLOAD PUSH1 0x4 SLOAD PUSH2 0x29AE SWAP1 SWAP2 SWAP1 PUSH4 0xFFFFFFFF AND JUMP JUMPDEST SWAP1 PUSH2 0x2989 JUMP JUMPDEST SWAP5 POP JUMPDEST PUSH2 0x1185 DUP6 PUSH2 0x2068 JUMP JUMPDEST SWAP4 POP POP POP POP SWAP2 POP SWAP2 JUMP JUMPDEST PUSH1 0x9 SLOAD DUP2 JUMP JUMPDEST PUSH1 0x1 PUSH1 0x1 PUSH1 0xA0 SHL SUB DUP2 AND PUSH1 0x0 SWAP1 DUP2 MSTORE PUSH1 0x17 PUSH1 0x20 MSTORE PUSH1 0x40 DUP2 KECCAK256 SLOAD PUSH2 0x11B7 DUP2 PUSH2 0x2068 JUMP JUMPDEST SWAP4 SWAP3 POP POP POP JUMP JUMPDEST PUSH1 0x1 PUSH1 0x1 PUSH1 0xA0 SHL SUB AND PUSH1 0x0 SWAP1 DUP2 MSTORE PUSH1 0x10 PUSH1 0x20 MSTORE PUSH1 0x40 SWAP1 KECCAK256 PUSH1 0x1 ADD SLOAD SWAP1 JUMP JUMPDEST PUSH1 0xA SLOAD DUP2 JUMP JUMPDEST PUSH1 0x0 SLOAD PUSH2 0x100 SWAP1 DIV PUSH1 0x1 PUSH1 0x1 PUSH1 0xA0 SHL SUB AND CALLER EQ PUSH2 0x123E JUMPI PUSH1 0x40 DUP1 MLOAD PUSH3 0x461BCD PUSH1 0xE5 SHL DUP2 MSTORE PUSH1 0x20 PUSH1 0x4 DUP3 ADD MSTORE PUSH1 0x15 PUSH1 0x24 DUP3 ADD MSTORE PUSH21 0x13DB9B1E48199858DD1BDC9E4818D85B8818D85B1B PUSH1 0x5A SHL PUSH1 0x44 DUP3 ADD MSTORE SWAP1 MLOAD SWAP1 DUP2 SWAP1 SUB PUSH1 0x64 ADD SWAP1 REVERT JUMPDEST PUSH1 0x16 SLOAD PUSH1 0xFF AND ISZERO PUSH2 0x1296 JUMPI PUSH1 0x40 DUP1 MLOAD PUSH3 0x461BCD PUSH1 0xE5 SHL DUP2 MSTORE PUSH1 0x20 PUSH1 0x4 DUP3 ADD MSTORE PUSH1 0x1E PUSH1 0x24 DUP3 ADD MSTORE PUSH32 0x546F6F206C6174652C20746F6B656E732061726520636C61696D61626C650000 PUSH1 0x44 DUP3 ADD MSTORE SWAP1 MLOAD SWAP1 DUP2 SWAP1 SUB PUSH1 0x64 ADD SWAP1 REVERT JUMPDEST PUSH1 0x14 SLOAD PUSH2 0x100 SWAP1 DIV PUSH1 0xFF AND ISZERO PUSH2 0x12F3 JUMPI PUSH1 0x40 DUP1 MLOAD PUSH3 0x461BCD PUSH1 0xE5 SHL DUP2 MSTORE PUSH1 0x20 PUSH1 0x4 DUP3 ADD MSTORE PUSH1 0x19 PUSH1 0x24 DUP3 ADD MSTORE PUSH32 0x546F6F206C6174652C2066696E69736855702063616C6C656400000000000000 PUSH1 0x44 DUP3 ADD MSTORE SWAP1 MLOAD SWAP1 DUP2 SWAP1 SUB PUSH1 0x64 ADD SWAP1 REVERT JUMPDEST PUSH1 0x14 DUP1 SLOAD PUSH3 0xFF0000 NOT AND PUSH3 0x10000 OR SWAP1 SSTORE JUMP JUMPDEST PUSH1 0x1 SLOAD PUSH1 0x1 PUSH1 0x1 PUSH1 0xA0 SHL SUB AND CALLER EQ PUSH2 0x1365 JUMPI PUSH1 0x40 DUP1 MLOAD PUSH3 0x461BCD PUSH1 0xE5 SHL DUP2 MSTORE PUSH1 0x20 PUSH1 0x4 DUP3 ADD MSTORE PUSH1 0x1C PUSH1 0x24 DUP3 ADD MSTORE PUSH32 0x4F6E6C792063616D706169676E206F776E65722063616E2063616C6C00000000 PUSH1 0x44 DUP3 ADD MSTORE SWAP1 MLOAD SWAP1 DUP2 SWAP1 SUB PUSH1 0x64 ADD SWAP1 REVERT JUMPDEST PUSH1 0x14 SLOAD PUSH1 0xFF AND ISZERO PUSH2 0x13BD JUMPI PUSH1 0x40 DUP1 MLOAD PUSH3 0x461BCD PUSH1 0xE5 SHL DUP2 MSTORE PUSH1 0x20 PUSH1 0x4 DUP3 ADD MSTORE PUSH1 0x1A PUSH1 0x24 DUP3 ADD MSTORE PUSH32 0x43616D706169676E20697320616C72656164792066756E646564000000000000 PUSH1 0x44 DUP3 ADD MSTORE SWAP1 MLOAD SWAP1 DUP2 SWAP1 SUB PUSH1 0x64 ADD SWAP1 REVERT JUMPDEST PUSH1 0x0 PUSH2 0x13C7 PUSH2 0x1E9E JUMP JUMPDEST SWAP1 POP PUSH1 0x0 DUP2 GT PUSH2 0x1417 JUMPI PUSH1 0x40 DUP1 MLOAD PUSH3 0x461BCD PUSH1 0xE5 SHL DUP2 MSTORE PUSH1 0x20 PUSH1 0x4 DUP3 ADD MSTORE PUSH1 0x16 PUSH1 0x24 DUP3 ADD MSTORE PUSH22 0x125B9D985B1A5908199D5B99081A5B88185B5BDD5B9D PUSH1 0x52 SHL PUSH1 0x44 DUP3 ADD MSTORE SWAP1 MLOAD SWAP1 DUP2 SWAP1 SUB PUSH1 0x64 ADD SWAP1 REVERT JUMPDEST PUSH1 0x14 DUP1 SLOAD PUSH1 0xFF NOT AND PUSH1 0x1 OR SWAP1 SSTORE PUSH1 0x2 SLOAD PUSH2 0x143C SWAP1 PUSH1 0x1 PUSH1 0x1 PUSH1 0xA0 SHL SUB AND CALLER ADDRESS DUP5 PUSH2 0x29C1 JUMP JUMPDEST POP JUMP JUMPDEST PUSH1 0xA SLOAD PUSH1 0x0 SWAP1 TIMESTAMP SWAP1 DUP2 LT DUP1 ISZERO SWAP1 PUSH2 0x1457 JUMPI POP PUSH1 0x8 SLOAD DUP2 LT JUMPDEST SWAP2 POP POP SWAP1 JUMP JUMPDEST PUSH1 0x0 DUP1 PUSH2 0x1469 DUP4 PUSH2 0x10B1 JUMP JUMPDEST SWAP5 SWAP4 POP POP POP POP JUMP JUMPDEST PUSH1 0x0 SLOAD PUSH1 0xFF AND ISZERO PUSH2 0x14BA JUMPI PUSH1 0x40 DUP1 MLOAD PUSH3 0x461BCD PUSH1 0xE5 SHL DUP2 MSTORE PUSH1 0x20 PUSH1 0x4 DUP3 ADD MSTORE PUSH1 0xE PUSH1 0x24 DUP3 ADD MSTORE PUSH14 0x4E6F2072652D656E7472616E6379 PUSH1 0x90 SHL PUSH1 0x44 DUP3 ADD MSTORE SWAP1 MLOAD SWAP1 DUP2 SWAP1 SUB PUSH1 0x64 ADD SWAP1 REVERT JUMPDEST PUSH1 0x0 DUP1 SLOAD PUSH1 0xFF NOT AND PUSH1 0x1 OR SWAP1 SSTORE PUSH1 0x16 SLOAD PUSH1 0xFF AND PUSH2 0x151E JUMPI PUSH1 0x40 DUP1 MLOAD PUSH3 0x461BCD PUSH1 0xE5 SHL DUP2 MSTORE PUSH1 0x20 PUSH1 0x4 DUP3 ADD MSTORE PUSH1 0x1D PUSH1 0x24 DUP3 ADD MSTORE PUSH32 0x546F6B656E73206E6F7420726561647920746F20636C61696D20796574000000 PUSH1 0x44 DUP3 ADD MSTORE SWAP1 MLOAD SWAP1 DUP2 SWAP1 SUB PUSH1 0x64 ADD SWAP1 REVERT JUMPDEST CALLER PUSH1 0x0 SWAP1 DUP2 MSTORE PUSH1 0x15 PUSH1 0x20 MSTORE PUSH1 0x40 SWAP1 KECCAK256 SLOAD PUSH1 0xFF AND ISZERO PUSH2 0x1583 JUMPI PUSH1 0x40 DUP1 MLOAD PUSH3 0x461BCD PUSH1 0xE5 SHL DUP2 MSTORE PUSH1 0x20 PUSH1 0x4 DUP3 ADD MSTORE PUSH1 0x18 PUSH1 0x24 DUP3 ADD MSTORE PUSH32 0x596F75206861766520616C726561647920636C61696D65640000000000000000 PUSH1 0x44 DUP3 ADD MSTORE SWAP1 MLOAD SWAP1 DUP2 SWAP1 SUB PUSH1 0x64 ADD SWAP1 REVERT JUMPDEST PUSH1 0x0 PUSH2 0x158E CALLER PUSH2 0x1195 JUMP JUMPDEST SWAP1 POP DUP1 ISZERO PUSH2 0x1603 JUMPI CALLER PUSH1 0x0 DUP2 DUP2 MSTORE PUSH1 0x15 PUSH1 0x20 SWAP1 DUP2 MSTORE PUSH1 0x40 SWAP2 DUP3 SWAP1 KECCAK256 DUP1 SLOAD PUSH1 0xFF NOT AND PUSH1 0x1 OR SWAP1 SSTORE DUP2 MLOAD TIMESTAMP DUP2 MSTORE SWAP1 DUP2 ADD DUP5 SWAP1 MSTORE DUP2 MLOAD PUSH32 0xCB1E26772E882480176A3E649A5F7937DC0EC3F50126283FAF56F927B070BE80 SWAP3 SWAP2 DUP2 SWAP1 SUB SWAP1 SWAP2 ADD SWAP1 LOG2 PUSH1 0x2 SLOAD PUSH2 0x1603 SWAP1 PUSH1 0x1 PUSH1 0x1 PUSH1 0xA0 SHL SUB AND CALLER DUP4 PUSH2 0x2A1B JUMP JUMPDEST POP PUSH1 0x0 DUP1 SLOAD PUSH1 0xFF NOT AND SWAP1 SSTORE JUMP JUMPDEST PUSH1 0x0 SLOAD PUSH1 0xFF AND ISZERO PUSH2 0x1659 JUMPI PUSH1 0x40 DUP1 MLOAD PUSH3 0x461BCD PUSH1 0xE5 SHL DUP2 MSTORE PUSH1 0x20 PUSH1 0x4 DUP3 ADD MSTORE PUSH1 0xE PUSH1 0x24 DUP3 ADD MSTORE PUSH14 0x4E6F2072652D656E7472616E6379 PUSH1 0x90 SHL PUSH1 0x44 DUP3 ADD MSTORE SWAP1 MLOAD SWAP1 DUP2 SWAP1 SUB PUSH1 0x64 ADD SWAP1 REVERT JUMPDEST PUSH1 0x0 DUP1 SLOAD PUSH1 0xFF NOT AND PUSH1 0x1 OR SWAP1 SSTORE PUSH1 0x14 SLOAD PUSH1 0xFF AND PUSH2 0x16BA JUMPI PUSH1 0x40 DUP1 MLOAD PUSH3 0x461BCD PUSH1 0xE5 SHL DUP2 MSTORE PUSH1 0x20 PUSH1 0x4 DUP3 ADD MSTORE PUSH1 0x1A PUSH1 0x24 DUP3 ADD MSTORE PUSH26 0x10D85B5C185A59DB881A5CC81B9BDD08199D5B991959081E595D PUSH1 0x32 SHL PUSH1 0x44 DUP3 ADD MSTORE SWAP1 MLOAD SWAP1 DUP2 SWAP1 SUB PUSH1 0x64 ADD SWAP1 REVERT JUMPDEST PUSH2 0x16C2 PUSH2 0x23D4 JUMP JUMPDEST PUSH2 0x170A JUMPI PUSH1 0x40 DUP1 MLOAD PUSH3 0x461BCD PUSH1 0xE5 SHL DUP2 MSTORE PUSH1 0x20 PUSH1 0x4 DUP3 ADD MSTORE PUSH1 0x14 PUSH1 0x24 DUP3 ADD MSTORE PUSH20 0x43616D706169676E206973206E6F74206C697665 PUSH1 0x60 SHL PUSH1 0x44 DUP3 ADD MSTORE SWAP1 MLOAD SWAP1 DUP2 SWAP1 SUB PUSH1 0x64 ADD SWAP1 REVERT JUMPDEST PUSH2 0x1712 PUSH2 0x143F JUMP JUMPDEST PUSH2 0x1763 JUMPI PUSH1 0x40 DUP1 MLOAD PUSH3 0x461BCD PUSH1 0xE5 SHL DUP2 MSTORE PUSH1 0x20 PUSH1 0x4 DUP3 ADD MSTORE PUSH1 0x17 PUSH1 0x24 DUP3 ADD MSTORE PUSH32 0x4E6F7420696E20464346532073616C6520706572696F64000000000000000000 PUSH1 0x44 DUP3 ADD MSTORE SWAP1 MLOAD SWAP1 DUP2 SWAP1 SUB PUSH1 0x64 ADD SWAP1 REVERT JUMPDEST PUSH2 0x176C CALLER PUSH2 0x2443 JUMP JUMPDEST PUSH2 0x17AD JUMPI PUSH1 0x40 DUP1 MLOAD PUSH3 0x461BCD PUSH1 0xE5 SHL DUP2 MSTORE PUSH1 0x20 PUSH1 0x4 DUP3 ADD MSTORE PUSH1 0xD PUSH1 0x24 DUP3 ADD MSTORE PUSH13 0x139BDD081C9959DA5CD95C9959 PUSH1 0x9A SHL PUSH1 0x44 DUP3 ADD MSTORE SWAP1 MLOAD SWAP1 DUP2 SWAP1 SUB PUSH1 0x64 ADD SWAP1 REVERT JUMPDEST CALLVALUE PUSH2 0x17F2 JUMPI PUSH1 0x40 DUP1 MLOAD PUSH3 0x461BCD PUSH1 0xE5 SHL DUP2 MSTORE PUSH1 0x20 PUSH1 0x4 DUP3 ADD MSTORE PUSH1 0x10 PUSH1 0x24 DUP3 ADD MSTORE PUSH16 0x56616C75652043616E2774206265203 PUSH1 0x84 SHL PUSH1 0x44 DUP3 ADD MSTORE SWAP1 MLOAD SWAP1 DUP2 SWAP1 SUB PUSH1 0x64 ADD SWAP1 REVERT JUMPDEST PUSH2 0x17FA PUSH2 0x2484 JUMP JUMPDEST CALLVALUE GT ISZERO PUSH2 0x1847 JUMPI PUSH1 0x40 DUP1 MLOAD PUSH3 0x461BCD PUSH1 0xE5 SHL DUP2 MSTORE PUSH1 0x20 PUSH1 0x4 DUP3 ADD MSTORE PUSH1 0x16 PUSH1 0x24 DUP3 ADD MSTORE PUSH22 0x125B9CDD59999A58D95B9D081D1BDAD95B881B19599D PUSH1 0x52 SHL PUSH1 0x44 DUP3 ADD MSTORE SWAP1 MLOAD SWAP1 DUP2 SWAP1 SUB PUSH1 0x64 ADD SWAP1 REVERT JUMPDEST CALLER PUSH1 0x0 SWAP1 DUP2 MSTORE PUSH1 0x17 PUSH1 0x20 MSTORE PUSH1 0x40 DUP2 KECCAK256 SLOAD PUSH2 0x1861 SWAP1 CALLVALUE PUSH2 0x2A6D JUMP JUMPDEST CALLER PUSH1 0x0 SWAP1 DUP2 MSTORE PUSH1 0x17 PUSH1 0x20 MSTORE PUSH1 0x40 SWAP1 KECCAK256 DUP2 SWAP1 SSTORE PUSH1 0x13 SLOAD SWAP1 SWAP2 POP PUSH2 0x1883 SWAP1 CALLVALUE PUSH2 0x2A6D JUMP JUMPDEST PUSH1 0x13 SSTORE CALLER PUSH32 0x2BDD59583C8E5CC64165E86AF2482DBE93E85C98B355B788AA592465B3F6920E TIMESTAMP CALLVALUE PUSH2 0x18B3 DUP2 PUSH2 0x2068 JUMP JUMPDEST PUSH1 0x40 DUP1 MLOAD SWAP4 DUP5 MSTORE PUSH1 0x20 DUP5 ADD SWAP3 SWAP1 SWAP3 MSTORE DUP3 DUP3 ADD MSTORE MLOAD SWAP1 DUP2 SWAP1 SUB PUSH1 0x60 ADD SWAP1 LOG2 POP PUSH1 0x0 DUP1 SLOAD PUSH1 0xFF NOT AND SWAP1 SSTORE JUMP JUMPDEST PUSH1 0x8 SLOAD TIMESTAMP LT ISZERO SWAP1 JUMP JUMPDEST PUSH2 0x18EE PUSH2 0x1EA4 JUMP JUMPDEST PUSH2 0x1929 JUMPI PUSH1 0x40 MLOAD PUSH3 0x461BCD PUSH1 0xE5 SHL DUP2 MSTORE PUSH1 0x4 ADD DUP1 DUP1 PUSH1 0x20 ADD DUP3 DUP2 SUB DUP3 MSTORE PUSH1 0x30 DUP2 MSTORE PUSH1 0x20 ADD DUP1 PUSH2 0x2E1B PUSH1 0x30 SWAP2 CODECOPY PUSH1 0x40 ADD SWAP2 POP POP PUSH1 0x40 MLOAD DUP1 SWAP2 SUB SWAP1 REVERT JUMPDEST CALLER PUSH1 0x0 SWAP1 DUP2 MSTORE PUSH1 0x17 PUSH1 0x20 MSTORE PUSH1 0x40 SWAP1 KECCAK256 SLOAD DUP1 PUSH2 0x1975 JUMPI PUSH1 0x40 MLOAD PUSH3 0x461BCD PUSH1 0xE5 SHL DUP2 MSTORE PUSH1 0x4 ADD DUP1 DUP1 PUSH1 0x20 ADD DUP3 DUP2 SUB DUP3 MSTORE PUSH1 0x26 DUP2 MSTORE PUSH1 0x20 ADD DUP1 PUSH2 0x2DF5 PUSH1 0x26 SWAP2 CODECOPY PUSH1 0x40 ADD SWAP2 POP POP PUSH1 0x40 MLOAD DUP1 SWAP2 SUB SWAP1 REVERT JUMPDEST CALLER PUSH1 0x0 DUP2 DUP2 MSTORE PUSH1 0x17 PUSH1 0x20 MSTORE PUSH1 0x40 DUP1 DUP3 KECCAK256 DUP3 SWAP1 SSTORE MLOAD SWAP1 SWAP2 SWAP1 DUP4 SWAP1 DUP4 DUP2 DUP2 DUP2 DUP6 DUP8 GAS CALL SWAP3 POP POP POP RETURNDATASIZE DUP1 PUSH1 0x0 DUP2 EQ PUSH2 0x19C6 JUMPI PUSH1 0x40 MLOAD SWAP2 POP PUSH1 0x1F NOT PUSH1 0x3F RETURNDATASIZE ADD AND DUP3 ADD PUSH1 0x40 MSTORE RETURNDATASIZE DUP3 MSTORE RETURNDATASIZE PUSH1 0x0 PUSH1 0x20 DUP5 ADD RETURNDATACOPY PUSH2 0x19CB JUMP JUMPDEST PUSH1 0x60 SWAP2 POP JUMPDEST POP POP SWAP1 POP DUP1 PUSH2 0x1A21 JUMPI PUSH1 0x40 DUP1 MLOAD PUSH3 0x461BCD PUSH1 0xE5 SHL DUP2 MSTORE PUSH1 0x20 PUSH1 0x4 DUP3 ADD MSTORE PUSH1 0x1C PUSH1 0x24 DUP3 ADD MSTORE PUSH32 0x4661696C656420746F20726566756E642046544D20746F207573657200000000 PUSH1 0x44 DUP3 ADD MSTORE SWAP1 MLOAD SWAP1 DUP2 SWAP1 SUB PUSH1 0x64 ADD SWAP1 REVERT JUMPDEST PUSH1 0x40 DUP1 MLOAD TIMESTAMP DUP2 MSTORE PUSH1 0x20 DUP2 ADD DUP5 SWAP1 MSTORE DUP2 MLOAD CALLER SWAP3 PUSH32 0x73F04AF9DCC582A923EC15D3EEA990FE34ADABFFF2879E28D44572E01A54ABB6 SWAP3 DUP3 SWAP1 SUB ADD SWAP1 LOG2 POP POP JUMP JUMPDEST PUSH1 0x0 SLOAD PUSH2 0x100 SWAP1 DIV PUSH1 0x1 PUSH1 0x1 PUSH1 0xA0 SHL SUB AND CALLER EQ PUSH2 0x1AAD JUMPI PUSH1 0x40 MLOAD PUSH3 0x461BCD PUSH1 0xE5 SHL DUP2 MSTORE PUSH1 0x4 ADD DUP1 DUP1 PUSH1 0x20 ADD DUP3 DUP2 SUB DUP3 MSTORE PUSH1 0x22 DUP2 MSTORE PUSH1 0x20 ADD DUP1 PUSH2 0x2DD3 PUSH1 0x22 SWAP2 CODECOPY PUSH1 0x40 ADD SWAP2 POP POP PUSH1 0x40 MLOAD DUP1 SWAP2 SUB SWAP1 REVERT JUMPDEST PUSH1 0x2 DUP1 SLOAD PUSH1 0x1 PUSH1 0x1 PUSH1 0xA0 SHL SUB DUP11 DUP2 AND PUSH1 0x1 PUSH1 0x1 PUSH1 0xA0 SHL SUB NOT SWAP3 DUP4 AND OR SWAP1 SWAP3 SSTORE PUSH1 0x1 DUP1 SLOAD SWAP3 DUP11 AND SWAP3 SWAP1 SWAP2 AND SWAP2 SWAP1 SWAP2 OR SWAP1 SSTORE DUP6 CALLDATALOAD PUSH1 0x3 SSTORE PUSH1 0x20 DUP1 DUP8 ADD CALLDATALOAD PUSH1 0x4 SSTORE PUSH1 0x40 DUP1 DUP9 ADD CALLDATALOAD PUSH1 0x5 SSTORE PUSH1 0x60 DUP1 DUP10 ADD CALLDATALOAD PUSH1 0x6 SSTORE DUP8 CALLDATALOAD PUSH1 0x7 SSTORE SWAP2 DUP8 ADD CALLDATALOAD PUSH1 0x8 SSTORE DUP7 ADD CALLDATALOAD PUSH1 0x9 SSTORE DUP6 ADD CALLDATALOAD PUSH1 0xA SSTORE PUSH1 0x11 DUP1 SLOAD PUSH1 0xFF NOT AND DUP6 ISZERO ISZERO OR SWAP1 SSTORE PUSH1 0xB DUP4 SWAP1 SSTORE PUSH1 0x0 JUMPDEST PUSH1 0x6 DUP2 LT ISZERO PUSH2 0x1BA4 JUMPI PUSH1 0x40 MLOAD DUP1 PUSH1 0x60 ADD PUSH1 0x40 MSTORE DUP1 DUP5 DUP4 PUSH1 0x6 DUP2 LT PUSH2 0x1B4B JUMPI INVALID JUMPDEST PUSH1 0x20 MUL ADD CALLDATALOAD DUP2 MSTORE PUSH1 0x20 ADD DUP4 DUP4 PUSH1 0x6 DUP2 LT PUSH2 0x1B61 JUMPI INVALID JUMPDEST PUSH1 0x20 SWAP1 DUP2 MUL SWAP2 SWAP1 SWAP2 ADD CALLDATALOAD DUP3 MSTORE PUSH1 0x0 SWAP2 DUP2 ADD DUP3 SWAP1 MSTORE PUSH1 0x1 SWAP4 DUP5 ADD DUP1 DUP4 MSTORE PUSH1 0xC DUP3 MSTORE PUSH1 0x40 SWAP3 DUP4 SWAP1 KECCAK256 DUP5 MLOAD DUP2 SSTORE SWAP2 DUP5 ADD MLOAD SWAP5 DUP3 ADD SWAP5 SWAP1 SWAP5 SSTORE SWAP2 ADD MLOAD PUSH1 0x2 SWAP1 SWAP2 ADD SSTORE PUSH2 0x1B2B JUMP JUMPDEST POP POP POP POP POP POP POP POP POP JUMP JUMPDEST PUSH1 0x0 SLOAD PUSH2 0x100 SWAP1 DIV PUSH1 0x1 PUSH1 0x1 PUSH1 0xA0 SHL SUB AND CALLER EQ DUP1 PUSH2 0x1BD7 JUMPI POP PUSH1 0x1 SLOAD PUSH1 0x1 PUSH1 0x1 PUSH1 0xA0 SHL SUB AND CALLER EQ JUMPDEST PUSH2 0x1C12 JUMPI PUSH1 0x40 MLOAD PUSH3 0x461BCD PUSH1 0xE5 SHL DUP2 MSTORE PUSH1 0x4 ADD DUP1 DUP1 PUSH1 0x20 ADD DUP3 DUP2 SUB DUP3 MSTORE PUSH1 0x27 DUP2 MSTORE PUSH1 0x20 ADD DUP1 PUSH2 0x2EA6 PUSH1 0x27 SWAP2 CODECOPY PUSH1 0x40 ADD SWAP2 POP POP PUSH1 0x40 MLOAD DUP1 SWAP2 SUB SWAP1 REVERT JUMPDEST PUSH1 0x14 SLOAD PUSH2 0x100 SWAP1 DIV PUSH1 0xFF AND PUSH2 0x1C58 JUMPI PUSH1 0x40 MLOAD PUSH3 0x461BCD PUSH1 0xE5 SHL DUP2 MSTORE PUSH1 0x4 ADD DUP1 DUP1 PUSH1 0x20 ADD DUP3 DUP2 SUB DUP3 MSTORE PUSH1 0x26 DUP2 MSTORE PUSH1 0x20 ADD DUP1 PUSH2 0x2D5F PUSH1 0x26 SWAP2 CODECOPY PUSH1 0x40 ADD SWAP2 POP POP PUSH1 0x40 MLOAD DUP1 SWAP2 SUB SWAP1 REVERT JUMPDEST PUSH1 0x16 DUP1 SLOAD PUSH1 0xFF NOT AND PUSH1 0x1 OR SWAP1 SSTORE JUMP JUMPDEST PUSH1 0x12 SLOAD DUP2 JUMP JUMPDEST PUSH1 0x0 SLOAD PUSH1 0xFF AND ISZERO PUSH2 0x1CB6 JUMPI PUSH1 0x40 DUP1 MLOAD PUSH3 0x461BCD PUSH1 0xE5 SHL DUP2 MSTORE PUSH1 0x20 PUSH1 0x4 DUP3 ADD MSTORE PUSH1 0xE PUSH1 0x24 DUP3 ADD MSTORE PUSH14 0x4E6F2072652D656E7472616E6379 PUSH1 0x90 SHL PUSH1 0x44 DUP3 ADD MSTORE SWAP1 MLOAD SWAP1 DUP2 SWAP1 SUB PUSH1 0x64 ADD SWAP1 REVERT JUMPDEST PUSH1 0x0 DUP1 SLOAD PUSH1 0xFF NOT AND PUSH1 0x1 OR SWAP1 SSTORE PUSH1 0x14 SLOAD PUSH1 0xFF AND PUSH2 0x1D17 JUMPI PUSH1 0x40 DUP1 MLOAD PUSH3 0x461BCD PUSH1 0xE5 SHL DUP2 MSTORE PUSH1 0x20 PUSH1 0x4 DUP3 ADD MSTORE PUSH1 0x1A PUSH1 0x24 DUP3 ADD MSTORE PUSH26 0x10D85B5C185A59DB881A5CC81B9BDD08199D5B991959081E595D PUSH1 0x32 SHL PUSH1 0x44 DUP3 ADD MSTORE SWAP1 MLOAD SWAP1 DUP2 SWAP1 SUB PUSH1 0x64 ADD SWAP1 REVERT JUMPDEST CALLER PUSH2 0x1D20 PUSH2 0x23B9 JUMP JUMPDEST PUSH2 0x1D71 JUMPI PUSH1 0x40 DUP1 MLOAD PUSH3 0x461BCD PUSH1 0xE5 SHL DUP2 MSTORE PUSH1 0x20 PUSH1 0x4 DUP3 ADD MSTORE PUSH1 0x1A PUSH1 0x24 DUP3 ADD MSTORE PUSH32 0x4E6F7420496E20526567697374726174696F6E20506572696F64000000000000 PUSH1 0x44 DUP3 ADD MSTORE SWAP1 MLOAD SWAP1 DUP2 SWAP1 SUB PUSH1 0x64 ADD SWAP1 REVERT JUMPDEST PUSH2 0x1D7A DUP2 PUSH2 0x2443 JUMP JUMPDEST ISZERO PUSH2 0x1DC0 JUMPI PUSH1 0x40 DUP1 MLOAD PUSH3 0x461BCD PUSH1 0xE5 SHL DUP2 MSTORE PUSH1 0x20 PUSH1 0x4 DUP3 ADD MSTORE PUSH1 0x11 PUSH1 0x24 DUP3 ADD MSTORE PUSH17 0x105B1C9958591E481C9959DA5CD95C9959 PUSH1 0x7A SHL PUSH1 0x44 DUP3 ADD MSTORE SWAP1 MLOAD SWAP1 DUP2 SWAP1 SUB PUSH1 0x64 ADD SWAP1 REVERT JUMPDEST PUSH1 0x1 DUP3 LT ISZERO DUP1 ISZERO PUSH2 0x1DD2 JUMPI POP PUSH1 0x6 DUP3 GT ISZERO JUMPDEST PUSH2 0x1E18 JUMPI PUSH1 0x40 DUP1 MLOAD PUSH3 0x461BCD PUSH1 0xE5 SHL DUP2 MSTORE PUSH1 0x20 PUSH1 0x4 DUP3 ADD MSTORE PUSH1 0x12 PUSH1 0x24 DUP3 ADD MSTORE PUSH18 0x92DCECC2D8D2C840E8D2CAE440D2DCC8CAF PUSH1 0x73 SHL PUSH1 0x44 DUP3 ADD MSTORE SWAP1 MLOAD SWAP1 DUP2 SWAP1 SUB PUSH1 0x64 ADD SWAP1 REVERT JUMPDEST PUSH2 0x1E24 DUP2 PUSH1 0xB SLOAD PUSH2 0x24D9 JUMP JUMPDEST POP PUSH2 0x1E2F DUP2 DUP4 PUSH2 0x2684 JUMP JUMPDEST PUSH2 0x1E7A JUMPI PUSH1 0x40 DUP1 MLOAD PUSH3 0x461BCD PUSH1 0xE5 SHL DUP2 MSTORE PUSH1 0x20 PUSH1 0x4 DUP3 ADD MSTORE PUSH1 0x17 PUSH1 0x24 DUP3 ADD MSTORE PUSH23 0x24B732B634B3B4B13632903337B9103A3432903A34B2B9 PUSH1 0x49 SHL PUSH1 0x44 DUP3 ADD MSTORE SWAP1 MLOAD SWAP1 DUP2 SWAP1 SUB PUSH1 0x64 ADD SWAP1 REVERT JUMPDEST PUSH2 0x1E84 DUP2 DUP4 PUSH2 0x27A2 JUMP JUMPDEST POP POP PUSH1 0x0 DUP1 SLOAD PUSH1 0xFF NOT AND SWAP1 SSTORE JUMP JUMPDEST PUSH1 0xD SLOAD DUP2 JUMP JUMPDEST PUSH1 0xE SLOAD DUP2 JUMP JUMPDEST PUSH1 0x5 SLOAD SWAP1 JUMP JUMPDEST PUSH1 0x14 SLOAD PUSH1 0x0 SWAP1 PUSH3 0x10000 SWAP1 DIV PUSH1 0xFF AND ISZERO PUSH2 0x1EC0 JUMPI POP PUSH1 0x1 PUSH2 0xD55 JUMP JUMPDEST PUSH1 0x8 SLOAD TIMESTAMP LT ISZERO DUP1 ISZERO PUSH2 0x1ED5 JUMPI POP PUSH1 0x13 SLOAD PUSH1 0x3 SLOAD GT JUMPDEST SWAP1 POP SWAP1 JUMP JUMPDEST PUSH1 0x6 SLOAD DUP2 JUMP JUMPDEST PUSH1 0x0 DUP1 PUSH2 0x1EEC DUP4 PUSH2 0x10B1 JUMP JUMPDEST POP SWAP4 SWAP3 POP POP POP JUMP JUMPDEST PUSH1 0x3 SLOAD DUP2 JUMP JUMPDEST PUSH1 0x13 SLOAD DUP2 JUMP JUMPDEST PUSH1 0x5 SLOAD DUP2 JUMP JUMPDEST PUSH1 0x1 SLOAD PUSH1 0x1 PUSH1 0x1 PUSH1 0xA0 SHL SUB AND CALLER EQ PUSH2 0x1F65 JUMPI PUSH1 0x40 DUP1 MLOAD PUSH3 0x461BCD PUSH1 0xE5 SHL DUP2 MSTORE PUSH1 0x20 PUSH1 0x4 DUP3 ADD MSTORE PUSH1 0x1C PUSH1 0x24 DUP3 ADD MSTORE PUSH32 0x4F6E6C792063616D706169676E206F776E65722063616E2063616C6C00000000 PUSH1 0x44 DUP3 ADD MSTORE SWAP1 MLOAD SWAP1 DUP2 SWAP1 SUB PUSH1 0x64 ADD SWAP1 REVERT JUMPDEST PUSH2 0x1F6D PUSH2 0x1EA4 JUMP JUMPDEST PUSH2 0x1FA8 JUMPI PUSH1 0x40 MLOAD PUSH3 0x461BCD PUSH1 0xE5 SHL DUP2 MSTORE PUSH1 0x4 ADD DUP1 DUP1 PUSH1 0x20 ADD DUP3 DUP2 SUB DUP3 MSTORE PUSH1 0x2D DUP2 MSTORE PUSH1 0x20 ADD DUP1 PUSH2 0x2D85 PUSH1 0x2D SWAP2 CODECOPY PUSH1 0x40 ADD SWAP2 POP POP PUSH1 0x40 MLOAD DUP1 SWAP2 SUB SWAP1 REVERT JUMPDEST PUSH1 0x14 DUP1 SLOAD PUSH1 0xFF NOT AND SWAP1 SSTORE PUSH1 0x2 SLOAD PUSH1 0x40 DUP1 MLOAD PUSH4 0x70A08231 PUSH1 0xE0 SHL DUP2 MSTORE ADDRESS PUSH1 0x4 DUP3 ADD MSTORE SWAP1 MLOAD PUSH1 0x1 PUSH1 0x1 PUSH1 0xA0 SHL SUB SWAP1 SWAP3 AND SWAP2 PUSH1 0x0 SWAP2 DUP4 SWAP2 PUSH4 0x70A08231 SWAP2 PUSH1 0x24 DUP1 DUP3 ADD SWAP3 PUSH1 0x20 SWAP3 SWAP1 SWAP2 SWAP1 DUP3 SWAP1 SUB ADD DUP2 DUP7 DUP1 EXTCODESIZE ISZERO DUP1 ISZERO PUSH2 0x2002 JUMPI PUSH1 0x0 DUP1 REVERT JUMPDEST POP GAS STATICCALL ISZERO DUP1 ISZERO PUSH2 0x2016 JUMPI RETURNDATASIZE PUSH1 0x0 DUP1 RETURNDATACOPY RETURNDATASIZE PUSH1 0x0 REVERT JUMPDEST POP POP POP POP PUSH1 0x40 MLOAD RETURNDATASIZE PUSH1 0x20 DUP2 LT ISZERO PUSH2 0x202C JUMPI PUSH1 0x0 DUP1 REVERT JUMPDEST POP MLOAD PUSH1 0x1 SLOAD SWAP1 SWAP2 POP PUSH2 0x2047 SWAP1 PUSH1 0x1 PUSH1 0x1 PUSH1 0xA0 SHL SUB AND DUP3 PUSH2 0x290C JUMP JUMPDEST POP POP JUMP JUMPDEST PUSH1 0x14 SLOAD PUSH3 0x10000 SWAP1 DIV PUSH1 0xFF AND DUP2 JUMP JUMPDEST PUSH1 0x14 SLOAD PUSH2 0x100 SWAP1 DIV PUSH1 0xFF AND DUP2 JUMP JUMPDEST PUSH1 0x0 PUSH2 0x208B PUSH1 0x4 SLOAD PUSH2 0x2085 PUSH1 0x5 SLOAD DUP6 PUSH2 0x2989 SWAP1 SWAP2 SWAP1 PUSH4 0xFFFFFFFF AND JUMP JUMPDEST SWAP1 PUSH2 0x29AE JUMP JUMPDEST SWAP3 SWAP2 POP POP JUMP JUMPDEST PUSH1 0x15 PUSH1 0x20 MSTORE PUSH1 0x0 SWAP1 DUP2 MSTORE PUSH1 0x40 SWAP1 KECCAK256 SLOAD PUSH1 0xFF AND DUP2 JUMP JUMPDEST PUSH1 0xC PUSH1 0x20 MSTORE PUSH1 0x0 SWAP1 DUP2 MSTORE PUSH1 0x40 SWAP1 KECCAK256 DUP1 SLOAD PUSH1 0x1 DUP3 ADD SLOAD PUSH1 0x2 SWAP1 SWAP3 ADD SLOAD SWAP1 SWAP2 SWAP1 DUP4 JUMP JUMPDEST PUSH1 0x0 SLOAD PUSH1 0xFF AND ISZERO PUSH2 0x2110 JUMPI PUSH1 0x40 DUP1 MLOAD PUSH3 0x461BCD PUSH1 0xE5 SHL DUP2 MSTORE PUSH1 0x20 PUSH1 0x4 DUP3 ADD MSTORE PUSH1 0xE PUSH1 0x24 DUP3 ADD MSTORE PUSH14 0x4E6F2072652D656E7472616E6379 PUSH1 0x90 SHL PUSH1 0x44 DUP3 ADD MSTORE SWAP1 MLOAD SWAP1 DUP2 SWAP1 SUB PUSH1 0x64 ADD SWAP1 REVERT JUMPDEST PUSH1 0x0 DUP1 SLOAD PUSH1 0xFF NOT AND PUSH1 0x1 OR SWAP1 SSTORE PUSH1 0x14 SLOAD PUSH1 0xFF AND PUSH2 0x2171 JUMPI PUSH1 0x40 DUP1 MLOAD PUSH3 0x461BCD PUSH1 0xE5 SHL DUP2 MSTORE PUSH1 0x20 PUSH1 0x4 DUP3 ADD MSTORE PUSH1 0x1A PUSH1 0x24 DUP3 ADD MSTORE PUSH26 0x10D85B5C185A59DB881A5CC81B9BDD08199D5B991959081E595D PUSH1 0x32 SHL PUSH1 0x44 DUP3 ADD MSTORE SWAP1 MLOAD SWAP1 DUP2 SWAP1 SUB PUSH1 0x64 ADD SWAP1 REVERT JUMPDEST PUSH2 0x2179 PUSH2 0x23D4 JUMP JUMPDEST PUSH2 0x21C1 JUMPI PUSH1 0x40 DUP1 MLOAD PUSH3 0x461BCD PUSH1 0xE5 SHL DUP2 MSTORE PUSH1 0x20 PUSH1 0x4 DUP3 ADD MSTORE PUSH1 0x14 PUSH1 0x24 DUP3 ADD MSTORE PUSH20 0x43616D706169676E206973206E6F74206C697665 PUSH1 0x60 SHL PUSH1 0x44 DUP3 ADD MSTORE SWAP1 MLOAD SWAP1 DUP2 SWAP1 SUB PUSH1 0x64 ADD SWAP1 REVERT JUMPDEST PUSH2 0x21C9 PUSH2 0x249D JUMP JUMPDEST PUSH2 0x221A JUMPI PUSH1 0x40 DUP1 MLOAD PUSH3 0x461BCD PUSH1 0xE5 SHL DUP2 MSTORE PUSH1 0x20 PUSH1 0x4 DUP3 ADD MSTORE PUSH1 0x17 PUSH1 0x24 DUP3 ADD MSTORE PUSH32 0x4E6F7420696E20746965722073616C6520706572696F64000000000000000000 PUSH1 0x44 DUP3 ADD MSTORE SWAP1 MLOAD SWAP1 DUP2 SWAP1 SUB PUSH1 0x64 ADD SWAP1 REVERT JUMPDEST PUSH2 0x2223 CALLER PUSH2 0x2443 JUMP JUMPDEST PUSH2 0x2264 JUMPI PUSH1 0x40 DUP1 MLOAD PUSH3 0x461BCD PUSH1 0xE5 SHL DUP2 MSTORE PUSH1 0x20 PUSH1 0x4 DUP3 ADD MSTORE PUSH1 0xD PUSH1 0x24 DUP3 ADD MSTORE PUSH13 0x139BDD081C9959DA5CD95C9959 PUSH1 0x9A SHL PUSH1 0x44 DUP3 ADD MSTORE SWAP1 MLOAD SWAP1 DUP2 SWAP1 SUB PUSH1 0x64 ADD SWAP1 REVERT JUMPDEST PUSH1 0xF SLOAD PUSH1 0xFF AND PUSH2 0x228E JUMPI PUSH1 0xD SLOAD PUSH1 0x4 SLOAD PUSH2 0x227D SWAP2 PUSH2 0x29AE JUMP JUMPDEST PUSH1 0xE SSTORE PUSH1 0xF DUP1 SLOAD PUSH1 0xFF NOT AND PUSH1 0x1 OR SWAP1 SSTORE JUMPDEST CALLVALUE PUSH2 0x22D3 JUMPI PUSH1 0x40 DUP1 MLOAD PUSH3 0x461BCD PUSH1 0xE5 SHL DUP2 MSTORE PUSH1 0x20 PUSH1 0x4 DUP3 ADD MSTORE PUSH1 0x10 PUSH1 0x24 DUP3 ADD MSTORE PUSH16 0x56616C75652043616E2774206265203 PUSH1 0x84 SHL PUSH1 0x44 DUP3 ADD MSTORE SWAP1 MLOAD SWAP1 DUP2 SWAP1 SUB PUSH1 0x64 ADD SWAP1 REVERT JUMPDEST PUSH2 0x22DB PUSH2 0x2484 JUMP JUMPDEST CALLVALUE GT ISZERO PUSH2 0x2328 JUMPI PUSH1 0x40 DUP1 MLOAD PUSH3 0x461BCD PUSH1 0xE5 SHL DUP2 MSTORE PUSH1 0x20 PUSH1 0x4 DUP3 ADD MSTORE PUSH1 0x16 PUSH1 0x24 DUP3 ADD MSTORE PUSH22 0x125B9CDD59999A58D95B9D081D1BDAD95B881B19599D PUSH1 0x52 SHL PUSH1 0x44 DUP3 ADD MSTORE SWAP1 MLOAD SWAP1 DUP2 SWAP1 SUB PUSH1 0x64 ADD SWAP1 REVERT JUMPDEST CALLER PUSH1 0x0 SWAP1 DUP2 MSTORE PUSH1 0x17 PUSH1 0x20 MSTORE PUSH1 0x40 DUP2 KECCAK256 SLOAD PUSH2 0x2342 SWAP1 CALLVALUE PUSH2 0x2A6D JUMP JUMPDEST SWAP1 POP PUSH2 0x234D CALLER PUSH2 0x1EE0 JUMP JUMPDEST DUP2 GT ISZERO PUSH2 0x238B JUMPI PUSH1 0x40 MLOAD PUSH3 0x461BCD PUSH1 0xE5 SHL DUP2 MSTORE PUSH1 0x4 ADD DUP1 DUP1 PUSH1 0x20 ADD DUP3 DUP2 SUB DUP3 MSTORE PUSH1 0x21 DUP2 MSTORE PUSH1 0x20 ADD DUP1 PUSH2 0x2DB2 PUSH1 0x21 SWAP2 CODECOPY PUSH1 0x40 ADD SWAP2 POP POP PUSH1 0x40 MLOAD DUP1 SWAP2 SUB SWAP1 REVERT JUMPDEST CALLER PUSH1 0x0 SWAP1 DUP2 MSTORE PUSH1 0x17 PUSH1 0x20 MSTORE PUSH1 0x40 SWAP1 KECCAK256 DUP2 SWAP1 SSTORE PUSH1 0x13 SLOAD PUSH2 0x1883 SWAP1 CALLVALUE PUSH2 0x2A6D JUMP JUMPDEST PUSH1 0x1 SLOAD PUSH1 0x1 PUSH1 0x1 PUSH1 0xA0 SHL SUB AND DUP2 JUMP JUMPDEST PUSH1 0x7 SLOAD PUSH1 0x0 SWAP1 TIMESTAMP SWAP1 DUP2 LT DUP1 ISZERO SWAP1 PUSH2 0x1457 JUMPI POP PUSH1 0x9 SLOAD GT SWAP2 SWAP1 POP JUMP JUMPDEST PUSH1 0x14 SLOAD PUSH1 0x0 SWAP1 PUSH1 0xFF AND ISZERO DUP1 PUSH2 0x23F1 JUMPI POP PUSH1 0x14 SLOAD PUSH3 0x10000 SWAP1 DIV PUSH1 0xFF AND JUMPDEST ISZERO PUSH2 0x23FE JUMPI POP PUSH1 0x0 PUSH2 0xD55 JUMP JUMPDEST PUSH1 0x7 SLOAD TIMESTAMP LT ISZERO PUSH2 0x2410 JUMPI POP PUSH1 0x0 PUSH2 0xD55 JUMP JUMPDEST PUSH1 0x8 SLOAD TIMESTAMP LT PUSH2 0x2421 JUMPI POP PUSH1 0x0 PUSH2 0xD55 JUMP JUMPDEST PUSH1 0x4 SLOAD PUSH1 0x13 SLOAD LT PUSH2 0x2434 JUMPI POP PUSH1 0x0 PUSH2 0xD55 JUMP JUMPDEST POP PUSH1 0x1 SWAP1 JUMP JUMPDEST PUSH1 0x14 SLOAD PUSH1 0xFF AND DUP2 JUMP JUMPDEST PUSH1 0x1 PUSH1 0x1 PUSH1 0xA0 SHL SUB AND PUSH1 0x0 SWAP1 DUP2 MSTORE PUSH1 0x10 PUSH1 0x20 MSTORE PUSH1 0x40 SWAP1 KECCAK256 SLOAD PUSH1 0xFF AND SWAP1 JUMP JUMPDEST PUSH1 0x11 SLOAD PUSH1 0xFF AND DUP2 JUMP JUMPDEST PUSH1 0x8 SLOAD DUP2 JUMP JUMPDEST PUSH1 0x0 SLOAD PUSH2 0x100 SWAP1 DIV PUSH1 0x1 PUSH1 0x1 PUSH1 0xA0 SHL SUB AND DUP2 JUMP JUMPDEST PUSH1 0x0 PUSH2 0x1ED5 PUSH1 0x13 SLOAD PUSH1 0x4 SLOAD PUSH2 0x2874 SWAP1 SWAP2 SWAP1 PUSH4 0xFFFFFFFF AND JUMP JUMPDEST PUSH1 0x9 SLOAD PUSH1 0x0 SWAP1 TIMESTAMP SWAP1 DUP2 LT DUP1 ISZERO SWAP1 PUSH2 0x1457 JUMPI POP PUSH1 0xA SLOAD GT SWAP2 SWAP1 POP JUMP JUMPDEST PUSH1 0xB SLOAD DUP2 JUMP JUMPDEST PUSH1 0x4 SLOAD DUP2 JUMP JUMPDEST PUSH1 0x2 SLOAD PUSH1 0x1 PUSH1 0x1 PUSH1 0xA0 SHL SUB AND DUP2 JUMP JUMPDEST PUSH2 0xDEAD DUP2 JUMP JUMPDEST PUSH1 0x0 DUP1 PUSH1 0x0 PUSH1 0x1 SWAP1 SLOAD SWAP1 PUSH2 0x100 EXP SWAP1 DIV PUSH1 0x1 PUSH1 0x1 PUSH1 0xA0 SHL SUB AND SWAP1 POP PUSH1 0x0 DUP2 PUSH1 0x1 PUSH1 0x1 PUSH1 0xA0 SHL SUB AND PUSH4 0xB6C24E1F PUSH1 0x40 MLOAD DUP2 PUSH4 0xFFFFFFFF AND PUSH1 0xE0 SHL DUP2 MSTORE PUSH1 0x4 ADD PUSH1 0x20 PUSH1 0x40 MLOAD DUP1 DUP4 SUB DUP2 DUP7 DUP1 EXTCODESIZE ISZERO DUP1 ISZERO PUSH2 0x252F JUMPI PUSH1 0x0 DUP1 REVERT JUMPDEST POP GAS STATICCALL ISZERO DUP1 ISZERO PUSH2 0x2543 JUMPI RETURNDATASIZE PUSH1 0x0 DUP1 RETURNDATACOPY RETURNDATASIZE PUSH1 0x0 REVERT JUMPDEST POP POP POP POP PUSH1 0x40 MLOAD RETURNDATASIZE PUSH1 0x20 DUP2 LT ISZERO PUSH2 0x2559 JUMPI PUSH1 0x0 DUP1 REVERT JUMPDEST POP MLOAD SWAP1 POP DUP1 PUSH1 0x1 PUSH1 0x1 PUSH1 0xA0 SHL SUB DUP2 AND PUSH4 0x282D3FDF DUP8 PUSH2 0x2578 TIMESTAMP DUP10 PUSH2 0x2A6D JUMP JUMPDEST PUSH1 0x40 MLOAD DUP4 PUSH4 0xFFFFFFFF AND PUSH1 0xE0 SHL DUP2 MSTORE PUSH1 0x4 ADD DUP1 DUP4 PUSH1 0x1 PUSH1 0x1 PUSH1 0xA0 SHL SUB AND DUP2 MSTORE PUSH1 0x20 ADD DUP3 DUP2 MSTORE PUSH1 0x20 ADD SWAP3 POP POP POP PUSH1 0x0 PUSH1 0x40 MLOAD DUP1 DUP4 SUB DUP2 PUSH1 0x0 DUP8 DUP1 EXTCODESIZE ISZERO DUP1 ISZERO PUSH2 0x25BE JUMPI PUSH1 0x0 DUP1 REVERT JUMPDEST POP GAS CALL ISZERO DUP1 ISZERO PUSH2 0x25D2 JUMPI RETURNDATASIZE PUSH1 0x0 DUP1 RETURNDATACOPY RETURNDATASIZE PUSH1 0x0 REVERT JUMPDEST POP POP POP POP POP POP POP SWAP3 SWAP2 POP POP JUMP JUMPDEST PUSH2 0x25E8 DUP2 PUSH2 0x2443 JUMP JUMPDEST ISZERO PUSH2 0x143C JUMPI PUSH1 0x1 PUSH1 0x1 PUSH1 0xA0 SHL SUB DUP2 AND PUSH1 0x0 SWAP1 DUP2 MSTORE PUSH1 0x10 PUSH1 0x20 SWAP1 DUP2 MSTORE PUSH1 0x40 DUP1 DUP4 KECCAK256 PUSH1 0x1 SWAP1 DUP2 ADD SLOAD DUP5 MSTORE PUSH1 0xC SWAP1 SWAP3 MSTORE SWAP1 SWAP2 KECCAK256 PUSH1 0x2 DUP2 ADD SLOAD SWAP1 SWAP2 PUSH2 0x2629 SWAP2 SWAP1 PUSH2 0x2874 JUMP JUMPDEST PUSH1 0x2 DUP3 ADD SSTORE DUP1 SLOAD PUSH1 0xD SLOAD PUSH2 0x263C SWAP2 PUSH2 0x2874 JUMP JUMPDEST PUSH1 0xD SSTORE POP PUSH1 0x40 DUP1 MLOAD DUP1 DUP3 ADD DUP3 MSTORE PUSH1 0x0 DUP1 DUP3 MSTORE PUSH1 0x20 DUP1 DUP4 ADD DUP3 DUP2 MSTORE PUSH1 0x1 PUSH1 0x1 PUSH1 0xA0 SHL SUB SWAP6 SWAP1 SWAP6 AND DUP3 MSTORE PUSH1 0x10 SWAP1 MSTORE SWAP2 SWAP1 SWAP2 KECCAK256 SWAP1 MLOAD DUP2 SLOAD PUSH1 0xFF NOT AND SWAP1 ISZERO ISZERO OR DUP2 SSTORE SWAP1 MLOAD PUSH1 0x1 SWAP1 SWAP2 ADD SSTORE JUMP JUMPDEST PUSH1 0x0 DUP1 PUSH1 0x0 PUSH1 0x1 SWAP1 SLOAD SWAP1 PUSH2 0x100 EXP SWAP1 DIV PUSH1 0x1 PUSH1 0x1 PUSH1 0xA0 SHL SUB AND SWAP1 POP PUSH1 0x0 DUP2 PUSH1 0x1 PUSH1 0x1 PUSH1 0xA0 SHL SUB AND PUSH4 0xB6C24E1F PUSH1 0x40 MLOAD DUP2 PUSH4 0xFFFFFFFF AND PUSH1 0xE0 SHL DUP2 MSTORE PUSH1 0x4 ADD PUSH1 0x20 PUSH1 0x40 MLOAD DUP1 DUP4 SUB DUP2 DUP7 DUP1 EXTCODESIZE ISZERO DUP1 ISZERO PUSH2 0x26DA JUMPI PUSH1 0x0 DUP1 REVERT JUMPDEST POP GAS STATICCALL ISZERO DUP1 ISZERO PUSH2 0x26EE JUMPI RETURNDATASIZE PUSH1 0x0 DUP1 RETURNDATACOPY RETURNDATASIZE PUSH1 0x0 REVERT JUMPDEST POP POP POP POP PUSH1 0x40 MLOAD RETURNDATASIZE PUSH1 0x20 DUP2 LT ISZERO PUSH2 0x2704 JUMPI PUSH1 0x0 DUP1 REVERT JUMPDEST POP MLOAD PUSH1 0x40 DUP1 MLOAD PUSH4 0x60217267 PUSH1 0xE0 SHL DUP2 MSTORE PUSH1 0x1 PUSH1 0x1 PUSH1 0xA0 SHL SUB DUP9 DUP2 AND PUSH1 0x4 DUP4 ADD MSTORE SWAP2 MLOAD SWAP3 SWAP4 POP DUP4 SWAP3 PUSH1 0x0 SWAP3 DUP5 AND SWAP2 PUSH4 0x60217267 SWAP2 PUSH1 0x24 DUP1 DUP4 ADD SWAP3 PUSH1 0x20 SWAP3 SWAP2 SWAP1 DUP3 SWAP1 SUB ADD DUP2 DUP7 DUP1 EXTCODESIZE ISZERO DUP1 ISZERO PUSH2 0x2756 JUMPI PUSH1 0x0 DUP1 REVERT JUMPDEST POP GAS STATICCALL ISZERO DUP1 ISZERO PUSH2 0x276A JUMPI RETURNDATASIZE PUSH1 0x0 DUP1 RETURNDATACOPY RETURNDATASIZE PUSH1 0x0 REVERT JUMPDEST POP POP POP POP PUSH1 0x40 MLOAD RETURNDATASIZE PUSH1 0x20 DUP2 LT ISZERO PUSH2 0x2780 JUMPI PUSH1 0x0 DUP1 REVERT JUMPDEST POP MLOAD PUSH1 0x0 DUP8 DUP2 MSTORE PUSH1 0xC PUSH1 0x20 MSTORE PUSH1 0x40 SWAP1 KECCAK256 PUSH1 0x1 ADD SLOAD GT ISZERO SWAP5 POP POP POP POP POP SWAP3 SWAP2 POP POP JUMP JUMPDEST PUSH1 0x0 DUP2 DUP2 MSTORE PUSH1 0xC PUSH1 0x20 MSTORE PUSH1 0x40 SWAP1 KECCAK256 PUSH1 0x2 DUP2 ADD SLOAD PUSH2 0x27C0 SWAP1 PUSH1 0x1 PUSH2 0x2A6D JUMP JUMPDEST PUSH1 0x2 DUP3 ADD SSTORE DUP1 SLOAD PUSH1 0xD SLOAD PUSH2 0x27D3 SWAP2 PUSH2 0x2A6D JUMP JUMPDEST PUSH1 0xD SSTORE PUSH1 0x40 DUP1 MLOAD DUP1 DUP3 ADD DUP3 MSTORE PUSH1 0x1 DUP1 DUP3 MSTORE PUSH1 0x20 DUP1 DUP4 ADD DUP7 DUP2 MSTORE PUSH1 0x1 PUSH1 0x1 PUSH1 0xA0 SHL SUB DUP9 AND PUSH1 0x0 DUP2 DUP2 MSTORE PUSH1 0x10 DUP5 MSTORE DUP7 SWAP1 KECCAK256 SWAP5 MLOAD DUP6 SLOAD PUSH1 0xFF NOT AND SWAP1 ISZERO ISZERO OR DUP6 SSTORE SWAP1 MLOAD SWAP4 SWAP1 SWAP3 ADD SWAP3 SWAP1 SWAP3 SSTORE DUP3 MLOAD TIMESTAMP DUP2 MSTORE SWAP2 DUP3 ADD DUP6 SWAP1 MSTORE DUP3 MLOAD SWAP1 SWAP3 PUSH32 0xCDA33A906FFA8A5F960826827500581F4613A5DB7A84B250433E0D591A630938 SWAP3 DUP3 SWAP1 SUB ADD SWAP1 LOG2 POP POP POP JUMP JUMPDEST PUSH1 0x0 PUSH2 0x208B PUSH3 0xF4240 PUSH2 0x2085 PUSH1 0x6 SLOAD DUP6 PUSH2 0x2989 SWAP1 SWAP2 SWAP1 PUSH4 0xFFFFFFFF AND JUMP JUMPDEST PUSH1 0x0 DUP3 DUP3 GT ISZERO PUSH2 0x2880 JUMPI INVALID JUMPDEST POP SWAP1 SUB SWAP1 JUMP JUMPDEST PUSH1 0x0 DUP1 PUSH1 0x0 PUSH1 0x1 SWAP1 SLOAD SWAP1 PUSH2 0x100 EXP SWAP1 DIV PUSH1 0x1 PUSH1 0x1 PUSH1 0xA0 SHL SUB AND SWAP1 POP DUP1 PUSH1 0x1 PUSH1 0x1 PUSH1 0xA0 SHL SUB AND PUSH4 0x4E7CEACB PUSH1 0x40 MLOAD DUP2 PUSH4 0xFFFFFFFF AND PUSH1 0xE0 SHL DUP2 MSTORE PUSH1 0x4 ADD PUSH1 0x20 PUSH1 0x40 MLOAD DUP1 DUP4 SUB DUP2 DUP7 DUP1 EXTCODESIZE ISZERO DUP1 ISZERO PUSH2 0x28DA JUMPI PUSH1 0x0 DUP1 REVERT JUMPDEST POP GAS STATICCALL ISZERO DUP1 ISZERO PUSH2 0x28EE JUMPI RETURNDATASIZE PUSH1 0x0 DUP1 RETURNDATACOPY RETURNDATASIZE PUSH1 0x0 REVERT JUMPDEST POP POP POP POP PUSH1 0x40 MLOAD RETURNDATASIZE PUSH1 0x20 DUP2 LT ISZERO PUSH2 0x2904 JUMPI PUSH1 0x0 DUP1 REVERT JUMPDEST POP MLOAD SWAP2 POP POP SWAP1 JUMP JUMPDEST PUSH1 0x1 SLOAD PUSH1 0x1 PUSH1 0x1 PUSH1 0xA0 SHL SUB DUP4 DUP2 AND SWAP2 AND EQ DUP1 PUSH2 0x2932 JUMPI POP PUSH1 0x1 PUSH1 0x1 PUSH1 0xA0 SHL SUB DUP3 AND PUSH2 0xDEAD EQ JUMPDEST PUSH2 0x296D JUMPI PUSH1 0x40 MLOAD PUSH3 0x461BCD PUSH1 0xE5 SHL DUP2 MSTORE PUSH1 0x4 ADD DUP1 DUP1 PUSH1 0x20 ADD DUP3 DUP2 SUB DUP3 MSTORE PUSH1 0x32 DUP2 MSTORE PUSH1 0x20 ADD DUP1 PUSH2 0x2ECD PUSH1 0x32 SWAP2 CODECOPY PUSH1 0x40 ADD SWAP2 POP POP PUSH1 0x40 MLOAD DUP1 SWAP2 SUB SWAP1 REVERT JUMPDEST PUSH1 0x2 SLOAD PUSH1 0x1 PUSH1 0x1 PUSH1 0xA0 SHL SUB AND PUSH2 0x2984 DUP2 DUP5 DUP5 PUSH2 0x2A1B JUMP JUMPDEST POP POP POP JUMP JUMPDEST PUSH1 0x0 DUP3 PUSH2 0x2998 JUMPI POP PUSH1 0x0 PUSH2 0x208B JUMP JUMPDEST POP DUP2 DUP2 MUL DUP2 DUP4 DUP3 DUP2 PUSH2 0x29A6 JUMPI INVALID JUMPDEST DIV EQ PUSH2 0x208B JUMPI INVALID JUMPDEST PUSH1 0x0 DUP2 DUP4 DUP2 PUSH2 0x29B9 JUMPI INVALID JUMPDEST DIV SWAP4 SWAP3 POP POP POP JUMP JUMPDEST PUSH1 0x40 DUP1 MLOAD PUSH1 0x1 PUSH1 0x1 PUSH1 0xA0 SHL SUB DUP1 DUP7 AND PUSH1 0x24 DUP4 ADD MSTORE DUP5 AND PUSH1 0x44 DUP3 ADD MSTORE PUSH1 0x64 DUP1 DUP3 ADD DUP5 SWAP1 MSTORE DUP3 MLOAD DUP1 DUP4 SUB SWAP1 SWAP2 ADD DUP2 MSTORE PUSH1 0x84 SWAP1 SWAP2 ADD SWAP1 SWAP2 MSTORE PUSH1 0x20 DUP2 ADD DUP1 MLOAD PUSH1 0x1 PUSH1 0x1 PUSH1 0xE0 SHL SUB AND PUSH4 0x23B872DD PUSH1 0xE0 SHL OR SWAP1 MSTORE PUSH2 0x108C SWAP1 DUP6 SWAP1 PUSH2 0x2A7A JUMP JUMPDEST PUSH1 0x40 DUP1 MLOAD PUSH1 0x1 PUSH1 0x1 PUSH1 0xA0 SHL SUB DUP5 AND PUSH1 0x24 DUP3 ADD MSTORE PUSH1 0x44 DUP1 DUP3 ADD DUP5 SWAP1 MSTORE DUP3 MLOAD DUP1 DUP4 SUB SWAP1 SWAP2 ADD DUP2 MSTORE PUSH1 0x64 SWAP1 SWAP2 ADD SWAP1 SWAP2 MSTORE PUSH1 0x20 DUP2 ADD DUP1 MLOAD PUSH1 0x1 PUSH1 0x1 PUSH1 0xE0 SHL SUB AND PUSH4 0xA9059CBB PUSH1 0xE0 SHL OR SWAP1 MSTORE PUSH2 0x2984 SWAP1 DUP5 SWAP1 PUSH2 0x2A7A JUMP JUMPDEST DUP2 DUP2 ADD DUP3 DUP2 LT ISZERO PUSH2 0x208B JUMPI INVALID JUMPDEST PUSH1 0x60 PUSH2 0x2ACF DUP3 PUSH1 0x40 MLOAD DUP1 PUSH1 0x40 ADD PUSH1 0x40 MSTORE DUP1 PUSH1 0x20 DUP2 MSTORE PUSH1 0x20 ADD PUSH32 0x5361666545524332303A206C6F772D6C6576656C2063616C6C206661696C6564 DUP2 MSTORE POP DUP6 PUSH1 0x1 PUSH1 0x1 PUSH1 0xA0 SHL SUB AND PUSH2 0x2B2B SWAP1 SWAP3 SWAP2 SWAP1 PUSH4 0xFFFFFFFF AND JUMP JUMPDEST DUP1 MLOAD SWAP1 SWAP2 POP ISZERO PUSH2 0x2984 JUMPI DUP1 DUP1 PUSH1 0x20 ADD SWAP1 MLOAD PUSH1 0x20 DUP2 LT ISZERO PUSH2 0x2AEE JUMPI PUSH1 0x0 DUP1 REVERT JUMPDEST POP MLOAD PUSH2 0x2984 JUMPI PUSH1 0x40 MLOAD PUSH3 0x461BCD PUSH1 0xE5 SHL DUP2 MSTORE PUSH1 0x4 ADD DUP1 DUP1 PUSH1 0x20 ADD DUP3 DUP2 SUB DUP3 MSTORE PUSH1 0x2A DUP2 MSTORE PUSH1 0x20 ADD DUP1 PUSH2 0x2E7C PUSH1 0x2A SWAP2 CODECOPY PUSH1 0x40 ADD SWAP2 POP POP PUSH1 0x40 MLOAD DUP1 SWAP2 SUB SWAP1 REVERT JUMPDEST PUSH1 0x60 PUSH2 0x1469 DUP5 DUP5 PUSH1 0x0 DUP6 DUP6 PUSH2 0x2B3F DUP6 PUSH2 0x2C51 JUMP JUMPDEST PUSH2 0x2B90 JUMPI PUSH1 0x40 DUP1 MLOAD PUSH3 0x461BCD PUSH1 0xE5 SHL DUP2 MSTORE PUSH1 0x20 PUSH1 0x4 DUP3 ADD MSTORE PUSH1 0x1D PUSH1 0x24 DUP3 ADD MSTORE PUSH32 0x416464726573733A2063616C6C20746F206E6F6E2D636F6E7472616374000000 PUSH1 0x44 DUP3 ADD MSTORE SWAP1 MLOAD SWAP1 DUP2 SWAP1 SUB PUSH1 0x64 ADD SWAP1 REVERT JUMPDEST PUSH1 0x0 PUSH1 0x60 DUP7 PUSH1 0x1 PUSH1 0x1 PUSH1 0xA0 SHL SUB AND DUP6 DUP8 PUSH1 0x40 MLOAD DUP1 DUP3 DUP1 MLOAD SWAP1 PUSH1 0x20 ADD SWAP1 DUP1 DUP4 DUP4 JUMPDEST PUSH1 0x20 DUP4 LT PUSH2 0x2BCF JUMPI DUP1 MLOAD DUP3 MSTORE PUSH1 0x1F NOT SWAP1 SWAP3 ADD SWAP2 PUSH1 0x20 SWAP2 DUP3 ADD SWAP2 ADD PUSH2 0x2BB0 JUMP JUMPDEST PUSH1 0x1 DUP4 PUSH1 0x20 SUB PUSH2 0x100 EXP SUB DUP1 NOT DUP3 MLOAD AND DUP2 DUP5 MLOAD AND DUP1 DUP3 OR DUP6 MSTORE POP POP POP POP POP POP SWAP1 POP ADD SWAP2 POP POP PUSH1 0x0 PUSH1 0x40 MLOAD DUP1 DUP4 SUB DUP2 DUP6 DUP8 GAS CALL SWAP3 POP POP POP RETURNDATASIZE DUP1 PUSH1 0x0 DUP2 EQ PUSH2 0x2C31 JUMPI PUSH1 0x40 MLOAD SWAP2 POP PUSH1 0x1F NOT PUSH1 0x3F RETURNDATASIZE ADD AND DUP3 ADD PUSH1 0x40 MSTORE RETURNDATASIZE DUP3 MSTORE RETURNDATASIZE PUSH1 0x0 PUSH1 0x20 DUP5 ADD RETURNDATACOPY PUSH2 0x2C36 JUMP JUMPDEST PUSH1 0x60 SWAP2 POP JUMPDEST POP SWAP2 POP SWAP2 POP PUSH2 0x2C46 DUP3 DUP3 DUP7 PUSH2 0x2C57 JUMP JUMPDEST SWAP8 SWAP7 POP POP POP POP POP POP POP JUMP JUMPDEST EXTCODESIZE ISZERO ISZERO SWAP1 JUMP JUMPDEST PUSH1 0x60 DUP4 ISZERO PUSH2 0x2C66 JUMPI POP DUP2 PUSH2 0x11B7 JUMP JUMPDEST DUP3 MLOAD ISZERO PUSH2 0x2C76 JUMPI DUP3 MLOAD DUP1 DUP5 PUSH1 0x20 ADD REVERT JUMPDEST DUP2 PUSH1 0x40 MLOAD PUSH3 0x461BCD PUSH1 0xE5 SHL DUP2 MSTORE PUSH1 0x4 ADD DUP1 DUP1 PUSH1 0x20 ADD DUP3 DUP2 SUB DUP3 MSTORE DUP4 DUP2 DUP2 MLOAD DUP2 MSTORE PUSH1 0x20 ADD SWAP2 POP DUP1 MLOAD SWAP1 PUSH1 0x20 ADD SWAP1 DUP1 DUP4 DUP4 PUSH1 0x0 JUMPDEST DUP4 DUP2 LT ISZERO PUSH2 0x2CC0 JUMPI DUP2 DUP2 ADD MLOAD DUP4 DUP3 ADD MSTORE PUSH1 0x20 ADD PUSH2 0x2CA8 JUMP JUMPDEST POP POP POP POP SWAP1 POP SWAP1 DUP2 ADD SWAP1 PUSH1 0x1F AND DUP1 ISZERO PUSH2 0x2CED JUMPI DUP1 DUP3 SUB DUP1 MLOAD PUSH1 0x1 DUP4 PUSH1 0x20 SUB PUSH2 0x100 EXP SUB NOT AND DUP2 MSTORE PUSH1 0x20 ADD SWAP2 POP JUMPDEST POP SWAP3 POP POP POP PUSH1 0x40 MLOAD DUP1 SWAP2 SUB SWAP1 REVERT JUMPDEST PUSH1 0x40 DUP1 MLOAD DUP1 DUP3 ADD SWAP1 SWAP2 MSTORE PUSH1 0x0 DUP1 DUP3 MSTORE PUSH1 0x20 DUP3 ADD MSTORE SWAP1 JUMP JUMPDEST PUSH1 0x40 MLOAD DUP1 PUSH1 0x60 ADD PUSH1 0x40 MSTORE DUP1 PUSH1 0x0 DUP2 MSTORE PUSH1 0x20 ADD PUSH1 0x0 DUP2 MSTORE PUSH1 0x20 ADD PUSH1 0x0 DUP2 MSTORE POP SWAP1 JUMP INVALID CHAINID PUSH2 0x696C PUSH6 0x6420746F2073 PUSH6 0x6E642072656D PUSH2 0x696E KECCAK256 CHAINID SLOAD 0x4D KECCAK256 PUSH21 0x6F2063616D706169676E206F776E657243616D7061 PUSH10 0x676E206E6F742066696E PUSH10 0x73686564207375636365 PUSH20 0x7366756C6C79207965744F6E6C79206661696C65 PUSH5 0x206F722063 PUSH2 0x6E63 PUSH6 0x6C6C65642063 PUSH2 0x6D70 PUSH2 0x6967 PUSH15 0x2063616E20756E2D66756E64496E76 PUSH6 0x73746D656E74 KECCAK256 PUSH10 0x73206D6F726520746861 PUSH15 0x20616C6C6F63617465644F6E6C7920 PUSH7 0x6163746F727920 PUSH2 0x6C6C PUSH16 0x77656420746F20696E697469616C697A PUSH6 0x596F75206469 PUSH5 0x6E27742070 PUSH2 0x7274 PUSH10 0x63697061746520696E20 PUSH21 0x68652063616D706169676E43616E20726566756E64 KECCAK256 PUSH7 0x6F72206661696C PUSH6 0x64206F722063 PUSH2 0x6E63 PUSH6 0x6C6C65642063 PUSH2 0x6D70 PUSH2 0x6967 PUSH15 0x206F6E6C7950726573616C65206661 PUSH10 0x6C6564206F722063616E PUSH4 0x656C6C65 PUSH5 0x202C206361 PUSH15 0x27742063616C6C2066696E69736855 PUSH17 0x5361666545524332303A20455243323020 PUSH16 0x7065726174696F6E20646964206E6F74 KECCAK256 PUSH20 0x7563636565644F6E6C7920666163746F7279206F PUSH19 0x2063616D706169676E206F776E65722063616E KECCAK256 PUSH4 0x616C6C43 PUSH2 0x6E20 PUSH16 0x6E6C792062652073656E7420746F2063 PUSH2 0x6D70 PUSH2 0x6967 PUSH15 0x206F776E6572206F72206275726E20 PUSH2 0x6464 PUSH19 0x657373A26469706673582212203DE21E62A775 XOR KECCAK256 DUP2 0xAB GASPRICE GASLIMIT SWAP14 CALLER 0xD3 MULMOD 0xA5 RETURNDATASIZE PUSH28 0x95557EA8C9DA253B6449331A7D64736F6C634300060C003352656720 COINBASE PUSH15 0x6420546965722053616C652043616E 0x27 PUSH21 0x204265204265666F72652053746172742044617465 MSTORE PUSH6 0x6720416E6420 SLOAD PUSH10 0x65722053616C65204361 PUSH15 0x277420426520416674657220456E64 KECCAK256 DIFFICULTY PUSH2 0x7465 MSTORE8 PUSH21 0x61727420646174652063616E277420626520686967 PUSH9 0x6572207468616E2065 PUSH15 0x642064617465537461727420646174 PUSH6 0x206D75737420 PUSH3 0x652068 PUSH10 0x67686572207468616E20 PUSH4 0x75727265 PUSH15 0x74206461746520536F667420636170 KECCAK256 PUSH4 0x616E2774 KECCAK256 PUSH3 0x652068 PUSH10 0x67686572207468616E20 PUSH9 0x61726420636170A264 PUSH10 0x70667358221220D762A8 0x2E 0x25 DUP7 0xCA SWAP9 DUP11 0x2A 0xC2 0xE SLT ORIGIN SMOD 0x49 0xD3 0x21 0xC7 EXTCODESIZE 0xC3 REVERT 0x2E PUSH1 0x49 0xD5 SHR SLOAD PUSH25 0x2564C64736F6C634300060C00330000000000000000000000 "
		},
		"gasEstimates": {
			"creation": {
				"codeDepositCost": "3132400",
				"executionCost": "infinite",
				"totalCost": "infinite"
			},
			"external": {
				"allCampaigns(uint256)": "2014",
				"cancelCampaign(uint256)": "infinite",
				"count()": "999",
				"createCampaign(address,uint256,address,uint256[4],uint256[4],bool,uint256,uint256[6],uint256[6])": "infinite",
				"getFeeAddress()": "1082",
				"getLauncherToken()": "1103",
				"getStakerAddress()": "1081",
				"owner()": "1126",
				"registerForIDOByFactory(uint256,address[],uint256[],uint256)": "infinite",
				"renounceOwnership()": "23851",
				"transferOwnership(address)": "24412"
			}
		},
		"methodIdentifiers": {
			"allCampaigns(uint256)": "a509f4d1",
			"cancelCampaign(uint256)": "45598b4a",
			"count()": "06661abd",
			"createCampaign(address,uint256,address,uint256[4],uint256[4],bool,uint256,uint256[6],uint256[6])": "af88e1f4",
			"getFeeAddress()": "4e7ceacb",
			"getLauncherToken()": "c9ff6247",
			"getStakerAddress()": "b6c24e1f",
			"owner()": "8da5cb5b",
			"registerForIDOByFactory(uint256,address[],uint256[],uint256)": "cd63d7a1",
			"renounceOwnership()": "715018a6",
			"transferOwnership(address)": "f2fde38b"
		}
	},
	"abi": [
		{
			"inputs": [
				{
					"internalType": "address",
					"name": "_stakerAddress",
					"type": "address"
				},
				{
					"internalType": "address",
					"name": "_launcherTokenAddress",
					"type": "address"
				},
				{
					"internalType": "address",
					"name": "_feeAddress",
					"type": "address"
				}
			],
			"stateMutability": "nonpayable",
			"type": "constructor"
		},
		{
			"anonymous": false,
			"inputs": [
				{
					"indexed": true,
					"internalType": "address",
					"name": "previousOwner",
					"type": "address"
				}
			],
			"name": "OwnershipRenounced",
			"type": "event"
		},
		{
			"anonymous": false,
			"inputs": [
				{
					"indexed": true,
					"internalType": "address",
					"name": "previousOwner",
					"type": "address"
				},
				{
					"indexed": true,
					"internalType": "address",
					"name": "newOwner",
					"type": "address"
				}
			],
			"name": "OwnershipTransferred",
			"type": "event"
		},
		{
			"inputs": [
				{
					"internalType": "uint256",
					"name": "",
					"type": "uint256"
				}
			],
			"name": "allCampaigns",
			"outputs": [
				{
					"internalType": "address",
					"name": "contractAddress",
					"type": "address"
				},
				{
					"internalType": "address",
					"name": "owner",
					"type": "address"
				}
			],
			"stateMutability": "view",
			"type": "function"
		},
		{
			"inputs": [
				{
					"internalType": "uint256",
					"name": "_campaignID",
					"type": "uint256"
				}
			],
			"name": "cancelCampaign",
			"outputs": [],
			"stateMutability": "nonpayable",
			"type": "function"
		},
		{
			"inputs": [],
			"name": "count",
			"outputs": [
				{
					"internalType": "uint256",
					"name": "",
					"type": "uint256"
				}
			],
			"stateMutability": "view",
			"type": "function"
		},
		{
			"inputs": [
				{
					"internalType": "address",
					"name": "_token",
					"type": "address"
				},
				{
					"internalType": "uint256",
					"name": "_subIndex",
					"type": "uint256"
				},
				{
					"internalType": "address",
					"name": "_campaignOwner",
					"type": "address"
				},
				{
					"internalType": "uint256[4]",
					"name": "_stats",
					"type": "uint256[4]"
				},
				{
					"internalType": "uint256[4]",
					"name": "_dates",
					"type": "uint256[4]"
				},
				{
					"internalType": "bool",
					"name": "_burnUnSold",
					"type": "bool"
				},
				{
					"internalType": "uint256",
					"name": "_tokenLockTime",
					"type": "uint256"
				},
				{
					"internalType": "uint256[6]",
					"name": "_tierWeights",
					"type": "uint256[6]"
				},
				{
					"internalType": "uint256[6]",
					"name": "_tierMinTokens",
					"type": "uint256[6]"
				}
			],
			"name": "createCampaign",
			"outputs": [
				{
					"internalType": "address",
					"name": "campaignAddress",
					"type": "address"
				}
			],
			"stateMutability": "nonpayable",
			"type": "function"
		},
		{
			"inputs": [],
			"name": "getFeeAddress",
			"outputs": [
				{
					"internalType": "address",
					"name": "",
					"type": "address"
				}
			],
			"stateMutability": "view",
			"type": "function"
		},
		{
			"inputs": [],
			"name": "getLauncherToken",
			"outputs": [
				{
					"internalType": "address",
					"name": "",
					"type": "address"
				}
			],
			"stateMutability": "view",
			"type": "function"
		},
		{
			"inputs": [],
			"name": "getStakerAddress",
			"outputs": [
				{
					"internalType": "address",
					"name": "",
					"type": "address"
				}
			],
			"stateMutability": "view",
			"type": "function"
		},
		{
			"inputs": [],
			"name": "owner",
			"outputs": [
				{
					"internalType": "address",
					"name": "",
					"type": "address"
				}
			],
			"stateMutability": "view",
			"type": "function"
		},
		{
			"inputs": [
				{
					"internalType": "uint256",
					"name": "_campaignID",
					"type": "uint256"
				},
				{
					"internalType": "address[]",
					"name": "_accounts",
					"type": "address[]"
				},
				{
					"internalType": "uint256[]",
					"name": "_tiers",
					"type": "uint256[]"
				},
				{
					"internalType": "uint256",
					"name": "_tokenLockTime",
					"type": "uint256"
				}
			],
			"name": "registerForIDOByFactory",
			"outputs": [],
			"stateMutability": "nonpayable",
			"type": "function"
		},
		{
			"inputs": [],
			"name": "renounceOwnership",
			"outputs": [],
			"stateMutability": "nonpayable",
			"type": "function"
		},
		{
			"inputs": [
				{
					"internalType": "address",
					"name": "newOwner",
					"type": "address"
				}
			],
			"name": "transferOwnership",
			"outputs": [],
			"stateMutability": "nonpayable",
			"type": "function"
		}
	]
}